:020000040000FA
:10200000D00C00208D220000B3220000C547000044
:1020100000000000000000000000000000000000C0
:10202000000000000000000000000000B7220000D7
:102030000000000000000000B9220000B1630000B1
:10204000BD220000BD220000BD220000BD22000014
:10205000BD220000BD220000BD220000BD22000004
:10206000BD220000BD220000BD220000BD220000F4
:102070004D66000095660000BD220000BD220000F4
:10208000BD220000BD220000BD220000BD220000D4
:10209000BD220000BD220000BD220000BD220000C4
:1020A000BD220000BD220000BD220000BD220000B4
:1020B000BD220000BD220000BD220000BD220000A4
:1020C0000348854600F094FD00480047F179000080
:1020D000D00C0020F0B58DB0684A00241460E543B0
:1020E000430702D06D1E1560C1E00595644F27229D
:1020F000BA600C90386010200390624E069425461A
:102100000491A8000B58FB670A4608184368344638
:102110003C3C0A94236083683446383C099423602D
:10212000C0683346343B18600120F8602D1D402DF7
:1021300000D306983F2D2C4673D80B940790089334
:102140004F4C012787F310884F480068282100F082
:10215000A7FB316839400BD1002282F310887268E6
:102160000F239A432346226022680C9BD21A9508BB
:10217000401E79D03268002902D030231A40E8D1BD
:1021800000290AD1089B0798002F49D10B98001D00
:102190000B90402830D300202FE00B988000049A49
:1021A0001158E1671018029040680A990860364893
:1021B0000068282100F074FB03990831019133680D
:1021C00001221A400BD1002383F3108873680F2576
:1021D000AB432146236023680C995B1A9D08401E7F
:1021E00042D03368002A02D0C0210B40E7D1002A38
:1021F00008D101980390C5E70120049A0B9C3F2C5D
:102200009BD90EE0029A906809990860D068089BF3
:102210001860002787F31088039810300390B2E706
:10222000049AC007164F114600D06AE716480646C2
:102230000068282100F034FB059D104A401E00D1A3
:1022400051E7F96BC907F9D10120440278692043AD
:1022500078613068282100F023FB401E0AD079699C
:102260002142FAD1039D02E0059D044A15602846EB
:102270000DB0F0BD014A1560F9E7C04680080020A6
:1022800004C00040C0C000400C0000200C480D49B4
:1022900001600D4901600D4901600D4A0D49116051
:1022A0000D4A0E491160002101600D4880470D481C
:1022B0000047FEE7FEE7FEE7FEE7FEE7FEE7000079
:1022C00000010040590000001600000088000000D6
:1022D00024000040A55A00008002004001000000D8
:1022E00011640000C1200000004870471C960000E7
:1022F00003460B439B0703D009E008C9121F08C01F
:10230000042AFAD203E00B780370401C491C521EC9
:10231000F9D27047D2B201E00270401C491EFBD2D4
:1023200070470022F6E710B513460A4604461946E0
:10233000FFF7F0FF204610BD421E5378521C002BC1
:10234000FBD10B781370491C521C002BF9D170473C
:1023500030B505462A460B4610781C78521C5B1C8B
:10236000002801D0A042F7D0002C03D0002802D0D2
:102370006D1CEFE7284630BD10B5044605E00B782C
:102380000370401C002B00D0491C521EF7D220467F
:1023900010BDCAB2401E4178401C8A4202D00029BA
:1023A000F9D100207047421C0178401C0029FBD164
:1023B000801A704703460A780270401C491C002AA4
:1023C000F9D1184670470000F7B5009C0F4600266B
:1023D0002578641C002D05D0FFF786FF0068405D5E
:1023E000C007F5D12B2D02D02D2D18D0641E3946F3
:1023F0002046029A00F000FB002F04D03968A14269
:1024000001D1009939607105022400290BDA40429C
:10241000002803DD05F0D6FB0460A007FEBD012007
:1024200080020643E3E70028F8DA05F0CBFB0460FE
:102430000048FEBDFFFFFF7F70B5064605F0C2FBFA
:10244000046805460A2200213046FFF7BDFF2C60D4
:1024500070BD70B5064605F0B5FB046805460A2256
:1024600000213046FFF7B0FF2C6070BDF0B5074685
:102470000846584087B0C00F049048000E465900E7
:1024800040084908BC1A884105D2384631461E46E4
:1024900017460B4602465800400810434CD0300DFA
:1024A000039040055900400D490D0590401A0290D7
:1024B000402872DA18030121000B09050843019036
:1024C00004980092002805D00199524200208841CA
:1024D00000920190029840210A1A0199009800F098
:1024E00057FA05460C466B4607CB00F072FAC01946
:1024F0007141039A0E0D0023D71756401A467A40B1
:10250000164344D0049A002A2DD0029A012A039A35
:1025100015DC1205C01A914101263605001C7141D7
:10252000D20F059ED2070093019202962A462346B7
:1025300000F0C2FA07B0F0BD38463146FAE716059A
:10254000224A0F46B218C01AB74101210905001CE2
:102550004F4100187F41114618187941E20F10438E
:102560006D19644113E0E2076D0815436408C20762
:102570001443039A01261205C01A91413605001C26
:102580007141CE07400830434908C01851412A46DE
:10259000234600F084FACDE7FFE7049801224000CB
:1025A000C117121A00238B4104983146C417381AF8
:1025B000A141EEE730B40124E407634030BC55E7A5
:1025C00030B40124E407614030BC4FE70000E0FF75
:1025D000F0B51FB488B00B990998002448400999B8
:1025E000C00F490049080991C0070B9900904900A4
:1025F00049080B9109990898A64608431CD00B99E5
:102600000A98084318D0099801244000420D480058
:10261000410D099824050003000B204309900B98F5
:102620000003000B20430B9050181C494018002257
:1026300001901446104605E0002001460DB0F0BDA3
:10264000032801DA034600E003239C46C11A0AAEC0
:102650000AE05F0008ADED5B4F00F75B7D430027AC
:10266000AA187C41491C5B1E6145F2DD410004ABA8
:102670005A522104120C0A43240C401C0828DFDBA8
:10268000019802900099704601910090059B049A70
:102690000799069800F010FAD0E700000DFCFFFF44
:1026A000F0B50C465C4085B0E40FE40703944C00A1
:1026B00000266408590094464908024602962243BF
:1026C00021D062460A431ED06200570D4A000E0315
:1026D0002303550D012402462C492405781B1B0BAE
:1026E000360B401823432643614600901C46501A7F
:1026F000B44103D30098401C009002E09218009867
:102700005B41002803DA0020014605B0F0BD00203F
:10271000012109050746864611E064461D46141B43
:10272000B54106D36546521BB341744607430C437B
:10273000A646CD0740084908284392185B41054644
:102740000D43EAD11046184313D060461946504055
:102750007140084306D06046101AB34106D20122E8
:10276000002306E000220123DB0702E00122D2431E
:102770005310009874460105381C6141029C039D6A
:102780000019694100F08BF9BFE70000FD0300006C
:1027900010B5002904DB0C460121C9074042A141C4
:1027A000002B04DB1C460123DB075242A341801AA5
:1027B000994101D3012010BD002010BD10B50029A2
:1027C00004DB0C460121C9074042A141002B04DB78
:1027D0001C460123DB075242A341101A8B4101D250
:1027E000012010BD002010BD10B5002904DB0C46EF
:1027F0000121C9074042A141002B04DB1C460123F3
:10280000DB075242A341101A8B4101D3012010BDB6
:10281000002010BD0EB5C217C10F5040CA074018A6
:102820000021054B0293019200910A460B4600F0ED
:1028300043F903B000BD0000330400000EB50549A4
:102840000291002100910A460B46019100F034F9F3
:1028500003B000BD3304000070B5CD0F4A0009037A
:102860000123090B1B0519430B4BED070024520DE7
:102870009A4201DA002070BD074B34339A4203DCE0
:102880009A1A00F095F802E00449511888402C4348
:10289000F1D0404270BD0000FF030000CDFBFFFF00
:1028A00070B50446002903D000202022012310E047
:1028B000002801D00020C043C046C0460DE0254698
:1028C000D5408D4205D30D469540641B1D4695406D
:1028D00040191546521E002DF1DC214670BD000046
:1028E00070B5002504462E46002911D0002C01DACF
:1028F00001254442002901DA012649422046FFF71A
:10290000CFFFB54200D04042002D00D0494270BDFB
:10291000002C02DA0121C90702E0002C00DD034986
:102920000846C046C046214670BD0000FFFFFF7F3D
:10293000F0B51FB40646002082B005464024019140
:1029400000901BE0019922460F46304600F030F817
:10295000049A059B801A994110D3104619462246C5
:1029600000F016F8361A8F41019722460120002107
:10297000009F00F00DF838184D4100902046641E6D
:102980000028DFDC019B00982946324607B0F0BDE5
:1029900010B5202A04DB0146203A9140002010BDEA
:1029A000914020239C1A0346E3401943904010BDF8
:1029B00010B5202A04DB0846203AD040002110BD83
:1029C0000B46D340D0402024A21A91400843194618
:1029D00010BD10B5202A06DBCB170846203A10415F
:1029E000C1170B4306E00B461341D0402024A21A26
:1029F00091400843194610BDF7B582B0029C0027EC
:102A00002078641C15460197302802D0002D15D07F
:102A100015E020780127641C782804D0582802D0BB
:102A2000002D09D00BE0002D01D0102D07D100277B
:102A300010252078641C02E0082500E00A25002605
:102A4000009610E00099012769430818020C2946F6
:102A500080B2714300908E183804864201D3012061
:102A600001902078641C294600F0D4F80028E9DAA7
:102A70000398002805D0002F01D0641E00E0029CBE
:102A800004600198002806D005F09CF8022101603E
:102A9000C81E05B0F0BD009930040843F9E710B531
:102AA000002B08DA0024401C614192185B411A4354
:102AB00001D14008400010BDF0B51FB482B00546FA
:102AC0000C0003D0084605F037F802E005F034F8B2
:102AD00020300246009021462846FFF759FF049B0C
:102AE000059A04460F4618431143084314D018466C
:102AF00010431BD0009840210A1A18460599FFF789
:102B000057FF05460E46009A05990498FFF740FFC7
:102B1000084305D0012004E02046394607B0F0BD47
:102B20000020C11705430E432C43374300990E98EC
:102B30006305401A7905E40A00220C43FD0A0A30B5
:102B400002D500200146E9E70105101969410C9CF6
:102B50000D9D00196941FFF7A2FFDFE770B54B003B
:102B60005B0803430BD04B005C0D002633466542E7
:102B7000B341D417AD1AA34102DB0020014670BD5A
:102B800012053018514170BD4A0009030123090B99
:102B90001B0519430A4B10B5520D9A4202DA002068
:102BA000014610BD064B34339A4203DC9A1AFFF7F4
:102BB000FFFE10BD034BD218FFF7EAFE10BD000068
:102BC000FF030000CDFBFFFF10B5002904DB01244B
:102BD000E40740428C412146002B04DB1C460123C4
:102BE000DB075242A341994200D1904210BD000040
:102BF000064C0125064E05E0E36807CC2B430C3C50
:102C000098471034B442F7D3FFF75EFA609A000099
:102C1000809A00003A2800D23038202302469A4396
:102C2000412A01D310463738884201D30020C043DF
:102C30007047FEB500231A461B1A8A4103DB0020A9
:102C4000014603B0F0BD4A000D0301212D0B09051B
:102C5000520D0D43D10702D100186D41521E511083
:102C6000FF31FF310131002704463E4638460097C8
:102C700001910246012100200905FFF799FEC319C1
:102C80007141F818324684468E464A4161462846CC
:102C9000611A904104D36046241A954176461F4636
:102CA000241900986D41401C00903428E1DDF91989
:102CB00030467041091BA84103D20022D24313467B
:102CC00001E00022134601980105381C7141FFF70D
:102CD000E6FEB6E7B0B518481849194C224604F08C
:102CE00069F918481849FFF733FB002805D0174841
:102CF0000421017001252846B0BD15A00F49174ACF
:102D000004F058F900250028F5D07D20800000F05F
:102D100025FF09480949224604F04CF909480A49A7
:102D2000FFF716FB0028E6D0322000F017FF074817
:102D3000042101700120B0BD439800007F9800007D
:102D4000DC050000800300206D9800004C0200208C
:102D500041542B584949433D310D0A00C409000034
:102D600070B51C4E34467B340C212046FFF7D9FA4F
:102D70003546263518A12846FFF7EAFA002805D17E
:102D800017A12846FFF7E4FA002805D016490F22BC
:102D90002046FFF7ADFA70BD14A12846FFF7D8FA18
:102DA00000280BD112A12846FFF7D2FA002805D13E
:102DB00010A12846FFF7CCFA002802D00E490722BE
:102DC000E6E77B20772131540020E070A17061702C
:102DD00070BDC0467C04002041697274656C0000BF
:102DE00061697274656C0000509A00004A696F0056
:102DF0006A696F004A494F008F9800000F21014017
:102E000000090A2242435018C0B2704780B57D20A5
:102E1000820006A0BF4904F0CDF8BD48FFF7C3FA11
:102E2000192801D8002080BD012080BD41542B4EBF
:102E300057424C45444953434F4E3F0D0A00000052
:102E400080B57D20C2004748B24904F0B3F8B048CD
:102E50004749FFF77DFA002804D000793038411E39
:102E6000884180BD002080BDB0B57D20C4000BA08E
:102E7000124D2946224604F09DF811A0294622460B
:102E800004F098F817A02946224604F093F81EA0F3
:102E90002946224604F08EF8B0BDC04641542B4E60
:102EA00057424C45505352563D302C2230783130E9
:102EB0003030222C322C310D0A0000007F980000A7
:102EC00041542B4E57424C45504352543D302C31C7
:102ED0002C22307831303031222C302C302C320DF5
:102EE0000A00000041542B4E57424C455043525467
:102EF0003D302C312C22307831303032222C302CA5
:102F0000322C300D0A00000041542B4E57424C45E4
:102F1000505354523D302C310D0A000010B5044678
:102F20007D20C2000F48104904F044F80F481049B2
:102F3000FFF70EFA002813D00079002C07D03028B4
:102F400005D112A00849104A04F034F810BD002C35
:102F500006D1312804D107A003490B4A04F02AF80E
:102F600010BDC0464E9800007F98000080030020EE
:102F70006498000041542B4E574254424C455057E0
:102F800052203D20300D0A001027000041542B4EE6
:102F9000574254424C45505752203D20310D0A00B3
:102FA000F0B581B005467D20C4001FA0234922460C
:102FB00004F000F8224823A1FFF7CAF9002805D041
:102FC000001D2946FFF7C4F9002801D001B0F0BD6B
:102FD0004A4E3046103022273946FFF7A2F91B48E7
:102FE0001B491C4A1C4B33607260B160F060304674
:102FF000394601F0D9FE30462946FFF79DF939469A
:1030000001F0D2FE3046FFF7CEF90D2131543018D1
:103010000A2141700021817008493046224603F0A0
:10302000C9FF01B0F0BDC04641542B4E5742544237
:103030004C454E414D453F0D0A0000007F98000071
:10304000800300204D453A20000000004D453D0022
:103050004C454E415742544241542B4EF0B583B03B
:103060000C4606460846FFF79EF90746FFF7CEFED8
:1030700000280AD0214D284617301B21FFF751F9AF
:10308000BAB2002E06D01E4805E023490020087081
:1030900003B0F0BD1B48294648C848C1C8C8C8C1CC
:1030A00003880B808078887001AE1749304604F0A1
:1030B0002FFD28463146FFF73FF9FFF774F90D2140
:1030C000295428180A214170002181707D20860032
:1030D0000E492846324603F06DFF002805D02046F1
:1030E00003F084F8304600F039FDF1480949FFF754
:1030F0002FF9411E884103B0F0BDC046E802002010
:103100001C9A0000049A0000969800007D98000028
:10311000800300207F9800006C020020C320400044
:10312000CB4900220A547047B0B58E4C2068072561
:10313000284002280BD120461038016804220A4397
:103140000260102000F020F9206828432060012050
:103150000004216B01432163B0BDC0466E490A687B
:1031600082430A607047C0461F21014001228A4005
:10317000800F800003A1085805494358134343506A
:103180007047C04600000000040000000800000076
:103190000402004070B50B4A00231360042804D1D8
:1031A000106804240443154604E06E4D2C6838264C
:1031B000B44304432C6051609360106803210143C1
:1031C000116070BD10E000E053490A6802430A60D4
:1031D0007047C04680B503F0EFF87A48006880BDBC
:1031E00080B503F0E9F80A480068072101407548F6
:1031F0000068C84080BDC04680B503F0DDF80448D3
:103200000168704800684906490FC84080BDC04643
:103210003402004080B511480168052000040142D5
:1032200001D0002080BD080303D50E488A0313D4C3
:1032300002E00B488A030FD40B4A0A40921C800814
:1032400050430A04920F09A39A5C8904C90E891C91
:103250005143FFF725FB800080BDC046400200407F
:103260000048E801001BB700FF0100000102020452
:1032700080B51148016805200004014201D00020FA
:1032800080BD080303D50E488A0313D402E00B481F
:103290008A030FD40B4A0A40921C800850430A0448
:1032A000920F09A39A5C8904C90E891C5143FFF748
:1032B000F7FA800080BDC046400200400048E801A7
:1032C000001BB700FF01000001020204F0B581B04D
:1032D0000D460446104E306D009030680427384388
:1032E0003060102000F050F8306907210843306149
:1032F000306A0F229043284330623069884320436C
:10330000306103F059F80098C00602D43068B84321
:10331000306001B0F0BDC0460002004070B5830AC5
:10332000DCB2104B002C0CD08505ED0EAC40050C2A
:103330000C262E400CA5AD595D192E69A6431643E7
:103340002E610201520F0BD0C401E40EA240800E88
:103350000C24044008A00059C45894430C43C450A2
:1033600070BDC046100200400000000000000000D8
:103370000000000010000000000000000400000039
:10338000080000000C000000B0B501460C4A002007
:1033900010600C4B1B685B080B4C25680D408D4280
:1033A00005D05B1EF9D10346002B03D103E00120B9
:1033B000002B00D0B0BD0021C9431160B0BDC04694
:1033C0007C0800200C0000205002004080B59B4883
:1033D0000249018003F0A4FA80BDC046BC1A000077
:1033E000B0B582B0164817A1FEF7B2FF002802D090
:1033F00001F0E2FD1EE0124813A1FEF7A9FF00282C
:103400001CD001204102114C2046FEF78AFF2920E2
:10341000C0000F490B5CFF20024648328A5C5030E6
:10342000085C15252D01495D0090019109A12046F8
:1034300004F06EFB00200549FFF710FE02B0B0BD9E
:10344000C605002053595300534348006C06002022
:10345000300000204F4E2054696D653A20253032EF
:10346000643A253032640A4F46462054696D65201F
:10347000253032643A253032640A000080B503F00A
:1034800099FB3E200249085C411E884180BDC04630
:10349000A802002080B5064806A1FEF759FF0028C3
:1034A00003D006490120087080BD002080BDC046C1
:1034B000800300202B434D540000000077020020C1
:1034C00010B5BA4868210024224601F0A3F9E04370
:1034D00002490968081A411E884110BD840800206D
:1034E00080B5FFF7D7FF5348FA21FEF71AFF0248CD
:1034F0000021018080BDC046C2050020F0B581B02A
:103500000446414D32212846FEF70BFF03F038FAFE
:1035100001F010F93D493E4F78703E483E4A3F4B1E
:103520000DC52960264630362E707D20C2003CA194
:103530000C3D284603F03EFD012801D1002614E091
:1035400028460A302821FEF7ECFE3848542129810C
:10355000374903C5083D2E7036482946FEF7F8FE68
:10356000002805D0052038700126304601B0F0BD96
:1035700028460F302321FEF7D4FE2F4829468CC859
:103580008CC102880A80807888702E732B4F002CA3
:1035900002D03946A23100E0B91C2846FEF7CCFE25
:1035A000FEF701FF2C212954281800264670002C14
:1035B00001D0B63700E0163728463946FEF7BCFE84
:1035C000FEF7F1FE0D21295428180A21417086705A
:1035D000002C0DD0012C0E4CC7D10B4818A11C4A51
:1035E00003F0E8FC0028C0D0052020700126BCE7CD
:1035F000054818A1164A03F0DDFC00280449B4D0A0
:10360000052008700126B0E7E8020020300D0A000E
:103610004C02002041542B49505354415455533DC2
:10362000434F4E4E454354494E470000302C434FC4
:103630004E4E454380030020F499000030000020E6
:1036400054435053455455503A312C4F4B000000D1
:10365000AC0D000054435053455455503A302C4F54
:103660004B000000B0B50446C0B20A252946FFF75A
:1036700017F94543611B00010843C0B2B0BD00000B
:1036800010B54A4C0549204601F09EF868220021F9
:1036900020460B4601F0A8F910BDC046A0860100E7
:1036A000F0B583B0044601AD0022AA71AA80019250
:1036B000072600963D4868212B4601F019F9287825
:1036C0007F273840FFF79AFBE07168783840FFF7B2
:1036D00095FBA071A8783F273840FFF78FFB6071FA
:1036E000E8783040207128793840FFF787FBE07098
:1036F00069791F200840FFF781FBA070A879FFF7C8
:103700007DFB2080012003B0F0BDC04680B5FFF7EF
:10371000B7FF002000F002F880BD0000F0B581B0D6
:103720000746224C6825002620462946324601F0ED
:1037300071F87F21014006480170781E8741F80129
:103740000B1820462946324601F062F901B0F0BD5F
:10375000C0050020B0B584B00546C079FFF782FFF0
:1037600002AC2070A879FFF77DFF60706879FFF7E1
:1037700079FFA0702879FFF775FFE070E878FFF710
:1037800071FF2071A878FFF76DFF60712878FFF74F
:1037900069FFA07107200090044868210022234699
:1037A00001F09CF9012004B0B0BDC0460000084003
:1037B000F0B581B0A7480078002843D0A648A7A15B
:1037C000FEF7C6FD002811D0FF208830A5490A5C0D
:1037D000042313430B54C32040000A5C0523134306
:1037E0000B54A1480121C161002116E09A489FA114
:1037F000FEF7AEFD002813D0FF20883099490A5CFF
:10380000FB2313430B54C32040000A5CFA231340EC
:103810000B5495480021C1610121016001B0F0BD48
:103820008D4894A1FEF794FD002805D18A4893A104
:10383000FEF78EFD00280ED0FF2188318948415CBB
:10384000490701D401B0F0BDC3214900425C052302
:1038500013434354C5E780488AA1FEF779FD002849
:1038600005D17D4889A1FEF773FD00280CD0FF210A
:1038700088317C48415C4907E4D5C3214900425C5A
:10388000FA2313404354C4E773488249FEF760FDAE
:10389000002827D070487F49FEF75AFD002821D024
:1038A000C2780A214A4303799C18103CFF231D4625
:1038B00048356C4A545584794C43C5792C19103CD1
:1038C0002925ED005455447A4C43857A2C19103C37
:1038D0005033D454037B4B43407BC0181038152120
:1038E000090118E05C486C49FEF732FD002817D04A
:1038F00059486949FEF72CFD002811D001790A22A8
:103900004A43C17864234B439918407908183030F2
:10391000FF218831534A505403F002F801B0F0BD42
:103920004D485E49FEF714FD002821D04A485B4906
:10393000FEF70EFD00281BD005462C21FEF729FDC1
:10394000002815D0064600270770464CA01CE91C2D
:10395000FEF730FD751C2C212846FEF71AFD0028C5
:10396000DAD00770163420462946FEF723FDD3E748
:1039700039484BA1FEF7ECFC00281AD0364849A183
:10398000FEF7E6FC002806D0FF20883035490A5CA7
:10399000022313430BE0304844A1FEF7D9FC002872
:1039A00007D0FF2088302F490A5CFD2313400B54B9
:1039B000B2E729483FA1FEF7CBFC00280FD02648EC
:1039C0003DA1FEF7C5FC002803D001F0B9FD01B010
:1039D000F0BD21483AA1FEF7BBFC002838D11E48B3
:1039E00039A1FEF7B5FC002827D039480078042813
:1039F00023D3384C2078002803D0002036A1FFF7CD
:103A00002DFB032500F034FC002806D1642000F0D3
:103A1000A5F86D1E2806F5D108E02078002803D00F
:103A2000002033A1FFF71AFB01F0C8F92078002825
:103A300003D0002035A1FFF711FB074838A1FEF79E
:103A400087FC002800D1FDE6FFF7CAFC01B0F0BDFD
:103A500002F0D8F978020020C605002046382C3143
:103A60002C000000300000207848004046382C32FE
:103A70002C0000004C303130000000004C382C315C
:103A80002C0000004C303030000000004C382C324C
:103A90002C000000ED970000FA970000F19700005D
:103AA0004C522C004C522C312C0000004C522C302B
:103AB0002C000000525354005253542C310000008B
:103AC0005253542C3000000046545020564E0000F3
:103AD0004C0200206C020020446F776E6C6F6164B2
:103AE000696E67204669726D776172652E2E2E00B1
:103AF000446F776E6C6F616465642E20496E7374D9
:103B0000616C6C696E672E2E2E000000446F776E1C
:103B10006C6F6164696E67204661696C6564210041
:103B2000424C4500B0B504464B4D0A48E86065205C
:103B300080002881A030688128461230064905227D
:103B4000FEF7D6FB002C04D000202876E860286120
:103B50006861B0BD303030007098000081B00090D6
:103B600003480099016001680029FCD101B0704749
:103B700030060020B0B57D20C400274827492246E2
:103B800003F018FA3220FFF7E9FF25A027A122460B
:103B900003F010FA002819D026480121017026A050
:103BA0001E49224603F006FA264D27A12846FEF7B5
:103BB000CFFB044626492846FEF7CAFB002817D04B
:103BC000244862301421FEF7ACFB19E023A02749FA
:103BD000224603F0EFF91B4825A1FEF7B9FB0028A8
:103BE00012D11448002101703220FFF7B7FFB0BD99
:103BF000002C05D017486230A11D1522FEF7BCFB32
:103C0000154802210170B0BD1BA01849224603F0DF
:103C1000D1F902F001F9C046149800007F98000025
:103C200041542B4350494E3F0D0A00005245414438
:103C3000590000007602002041542B434349440DB3
:103C40000A2C0000800300202B434349443A000023
:103C5000829800007C0400204C02002041542B5329
:103C6000494D43524F53533F0D0A000069980000DD
:103C7000533A20310000000041542B53494D435228
:103C80004F53533D320D0A00F0B58BB000F028FCC5
:103C90000027002800D10DE188A08F4C8F4A2146D3
:103CA00003F088F90A252846FFF758FF8C4821467B
:103CB000FEF74EFB002800D1FCE0C178202904D19A
:103CC0000179202903D0041D02E0C41C00E0441D3A
:103CD0000D2620463146FEF75CFB002803D1204626
:103CE000FEF761FB2018002707702046FEF7B1FBA6
:103CF0007C49088081B27C4A8A187C4B9A4200D960
:103D0000D8E0029603957F221040794A1070C809C6
:103D1000784D288000F03EF9774E002434807748B3
:103D20004121FEF7FEFA02F047FA00F0A3F97448C9
:103D300004940480D2490868082201921043086064
:103D40002888002850D0052080030590644F6B48D8
:103D50006D491CC91CC03D4637465CC95CC03E4627
:103D60002F46328806AC2046684903F0D1FE634DE9
:103D700028462146FEF7E0FAFEF715FB2818072231
:103D80006349FEF7B5FA284662495E4A03F012F924
:103D90001420FFF7E3FE38465F49FEF7D9FA002802
:103DA00060D12C213846FEF7F4FA00285CD0318827
:103DB000059D4919401C8024224603F0CBF8308829
:103DC00041195648224602F0FBF80A20FFF7C6FECA
:103DD0003088803030804A490888401C0880454936
:103DE000098880B28842B2D34148007800284FD079
:103DF0004548424F39461CC81CC13CC83CC13288AA
:103E000006AC3546414E2046314603F081FE384629
:103E10002146FEF791FA2C2100F0C6FF34480278C3
:103E20002046314603F074FE38462146FEF784FAF8
:103E3000FEF7B9FA029939543818039941700021F4
:103E40000C46817033492F4A384603F0B3F81420EA
:103E5000FFF784FE22483049FEF77AFA002805D0A1
:103E6000274627E0049F25E0049F23E01C482C21DF
:103E7000FEF78FFA002827461CD0052189032A88DF
:103E80005118401C802203F065F80A20FFF766FEF7
:103E90007B490868019A9043086000F093F802F0AB
:103EA0004DF91048008802F04DFA7D20C000FFF760
:103EB00055FE012738460BB0F0BDC04641542B4695
:103EC000545053495A453D4865782F43434D532E2E
:103ED00062696E0D0A00000075980000B80B0000C2
:103EE000800300201800002078ECFFFFD8D60000E7
:103EF0008F0500200C050020D8010020E8020020DA
:103F0000D401002030750000349A0000969800001B
:103F10003C98000079980000829800000E0500206F
:103F200080B500F001F880BD10B5084802F00EF928
:103F30004B204101064C204602F02CFC01F046FFCC
:103F40000121204602F022FC10BDC04612000004F0
:103F50000020074070B504460E1886420AD925464F
:103F6000284600F035F800280FD4012040022D1813
:103F7000B542F5D3A64207D9204600F083F8401C8D
:103F800003D1241DB442F7D370BD0A20FFF7E6FD2C
:103F900070BD0000B0B502F01BF900F06BF8B24C38
:103FA0002068082528432060052080030321890319
:103FB000FFF7D0FF2068A843206000F003F802F06C
:103FC000C1F8B0BDA8480168012291430160704763
:103FD00070B5A64D00242C6001214A05904202D103
:103FE00000F022F870BDA04E2222F26070603161B4
:103FF000774800681421FEF753FC401E0ED031694B
:10400000C907FAD13068400606D53068402101431F
:1040100031600020C4432C60204670BD0020C443A2
:104020002C60204670BDC04670B5904D00242C60B9
:104030008D4E2220F0600120410571600C49B16075
:104040003061634800681421FEF72AFC401E09D045
:104050003169C907FAD13068400606D53068402179
:10406000014331600020C4432C60204670BDC0462F
:1040700003AA55007C48016801220A430260704788
:1040800000C0004070B5794C00252560304E311FCE
:104090000D6031460C390860012030604C480068E2
:1040A0002821FEF7FDFB401E05D03168C907FAD173
:1040B000083E306870BDE843206070BDF0B581B047
:1040C0000E460446032005052846FFF7DBFF206067
:1040D000664F3868002801D001B0F0BD032E02D928
:1040E0000120C14315E0022E06D3281DFFF7CAFFA9
:1040F000606038680028EFD10021032E09D308350D
:1041000028460D46FFF7BEFF2946A0603868002804
:10411000E2D1084601B0F0BD70B5544C00252560D1
:104120002B4800680A4E311F2E220A6031460C3996
:104130000D60012131602821FEF7B2FB401C401EBA
:1041400003D031680029FAD170BDE843206070BD0A
:1041500010C00040F0B581B0444A002414601B4FE9
:104160003A460C3A212313603A46143A1060384616
:10417000103801603E46083E01253560144800684D
:104180002821FEF78DFB401E18D03168C907FAD1EF
:10419000B86A40060ED46D023868284338600C486F
:1041A00000682821FEF77CFB401E07D039682942B1
:1041B000FAD107E0B86A40210143B9620020C44344
:1041C0002A480460204601B0F0BDC04618C0004037
:1041D0000C000020F0B583B00C4605462249086863
:1041E000102630430860032007053846FFF7F0FE2D
:1041F0000021CA43002811D100A846C03846FFF765
:1042000041FF401C04D1381DFFF73CFF401C08D083
:104210001549019A029B086898430860104603B04C
:10422000F0BD38460830FFF72DFFA630F0D10F4E15
:1042300030680028ECD1002C12D029683846FFF7EE
:1042400089FF0028E4D13846FFF71CFF296888421F
:10425000DED130680028DBD13F1D2D1D641EECD15E
:10426000009A0149D6E7C04600C0004080080020FF
:10427000F0B583B0334D41212846FEF752F87D203A
:104280000290C40100F02CF9002804D02EA032A125
:10429000224602F08FFE019400242C732F483049EF
:1042A000304A2A606960A8602F4F39465A31284643
:1042B000FEF742F82C26314600F076FD394678317B
:1042C0002846FEF739F8314600F06EFD39467F3159
:1042D0002846FEF731F8314600F066FD9337284650
:1042E0003946FEF729F8FEF75EF80D212954281803
:1042F0000A21417084701DA12846019A02F05AFEDD
:1043000002980001FFF72AFC1A481BA1FEF720F8CB
:10431000002805D117481AA1FEF71AF800280DD079
:10432000144819A1FEF714F8002807D117480521F1
:104330000170FFF7A9FC002800D00124204603B03B
:10434000F0BDC046E802002041542B4654504C4F6B
:10435000474F55540D0A0000434D450047494E3D17
:1043600054504C4F41542B463000002047494E3AA0
:1043700000000000800300206C6F67676564000028
:104380004C6F6767656400004E6F74004C0200203C
:10439000F0B500231C4603E09B1C641C102C0CD0C1
:1043A0000D46E540ED07F7D015469D4003269E409B
:1043B0000768B7432F430760EEE7F0BDF0B583B061
:1043C000FF208830A049085C46210140402957D190
:1043D0009F48C2788178008803F046F8294A03C2D2
:1043E000294F30CF294E0CCE0092019322462B4606
:1043F000083E083F03F0FCF9254A03C20CCF2149CF
:1044000003C930CE0094019503F062FA04460D46CC
:104410002048046041608E4A50793C2141439079A4
:104420000818FEF7F7F906460F46194903C9324640
:104430003B46FEF7D9F98849002814D120460C469E
:10444000294632463B46FEF7A3F9214600280AD109
:104450000020C86101200860C32040007A4A105C37
:104460004121884309E00120C86100200860C32081
:104470004000754A115C41200843C3214900505453
:1044800003B0F0BD80020020580600206006002026
:10449000880800209008002080B57D20020109A036
:1044A0000B4902F087FD0B480BA1FDF751FF0028D7
:1044B00006D0C07904210143352901D1012080BDF6
:1044C000002080BD41542B435245473F0D0A000058
:1044D0007F980000800300205245473A000000000A
:1044E00080B57D20C20105A008A102F063FDAE48A1
:1044F0000749FDF72DFF411E884180BD41542B46E1
:1045000054505354415455530D0A000055533A002A
:104510006D98000002480068411E88417047C046FF
:104520008C48004002480068411E88417047C046E0
:104530008848004002480068411E88417047C046D4
:104540008448004010B57D2002011148114C2146DD
:1045500002F030FD10A0134A214602F02BFD002886
:1045600014D091482221FDF714FF00280ED00446F4
:10457000801C2221FDF70DFFE1434018C2B2272A1B
:1045800004D809482630611CFDF7F6FE10BDC04670
:104590005F9800007F98000041542B434F50533FD9
:1045A0000D0A0000B80B00007C04002070B52548FF
:1045B0000078002844D0FF210A4688322248825CD5
:1045C00006231340022B3BD1204A1578204A214C68
:1045D000002D01D0631D00E0531D1E783C235E4377
:1045E000002D01D0A21D00E0921D1278B4181522F2
:1045F0001201825C0D465035455D5D43AD18164A8B
:10460000AC4213D92925ED00455D4831415C4B434F
:1046100059198C420AD2C3214900435CFC241C4036
:1046200044540020D0610120106070BDC3214900B6
:10463000435C03241C4344540120D06100201060DB
:1046400070BDC046790200203000002075020020B5
:10465000CC010020B805002078480040F0B587B0B4
:104660006D460024AC722B4929812B4901912B49BD
:1046700000913030C1B2284600F096FB2846FDF785
:1046800092FE0D21295428180A21417084707D2042
:10469000C20023A1284602F08DFC002837D0224812
:1046A00022A1FDF755FE002831D01F482C21FDF72F
:1046B00070FE00282BD00746451C2C212846FDF70C
:1046C00068FE002823D00646C01B821C6F46384671
:1046D0002946FDF751FEFDF7BCFE054600243C7659
:1046E000009401940294039404940594761C104958
:1046F0003046FDF72DFE002809D0821B6846314662
:10470000FDF73AFEFDF7A5FE281A44424441204633
:1047100007B0F0BD4B3D00004350414341542B5482
:1047200041434B3A0000000080030020434B3A0015
:104730006198000070B51948002404810460446049
:104740007D263501164817492A4602F033FC1648E3
:104750000078002802D17001FFF700FA13A0114978
:104760002A4602F027FC104813A1FDF7F1FD05468B
:104770002C21FDF70EFE002D0ED000280CD00021BC
:104780000170AD1D2846FDF757FE04460348294633
:10479000FDF710FE0A484470E0B270BD70080020BA
:1047A0005F9800007F9800008003002041542B4355
:1047B00053510D0A000000002B4353513A000000F2
:1047C0004C02002001F00AFBF0B581B00E46044611
:1047D0000F48844203D0FEF703FD054602E0FEF7D2
:1047E0000BFD05460A2738466843B100FEF758F826
:1047F000401D3946FEF754F8411E216121684022D0
:104800000A43226081002846FEF74AF801B0F0BD55
:1048100000100840F0B586B003920A46E349002331
:104820000B6001682824029421430160D94305915B
:104830005100CAB20192491CC9B2009101220493ED
:104840001F46DB4909680468240704D4491EFAD1CD
:10485000D649059C0C60C468083C0321CC41012565
:104860000A2C19D81821C0467C4424796400A74436
:1048700005070B1F101F13091F131B00019900E0F0
:1048800000998160082112E0039981603D46194634
:104890000EE03D4602990BE0016818230B432421EA
:1048A0008B430360082103E08268049200223D46A6
:1048B00003683C24A343CCB21C430460002A03D009
:1048C000002D0B462F46BCD0B9490968049B0268ED
:1048D000D20604D5491EFAD1B44805990160002DCD
:1048E00003D0B248059901600023D8B206B0F0BDEC
:1048F000F0B588B0059304920446AC4800270760E1
:10490000206828220392104320600D98401E0290D8
:10491000F84307904800C1B20191401CC0B200901A
:1049200001223D460697A24800682168090704D481
:10493000401EFAD19D4807990160E16808390320BB
:10494000C14101200A2918D81826C046794409799E
:1049500049008F4405070A2F0F2F12252F1A270011
:10496000019800E00098A06018E00498A060384624
:104970002E461FE03846039E1CE0216818230B4397
:1049800024218B432360082614E0A0680699059B28
:104990005854491C02988142069101D3082608E028
:1049A0000C2606E0A0680699059A5054491C069109
:1049B0000022384621683C239943F3B20B4323601D
:1049C000002A03D0002835460746ACD07848026854
:1049D00006982168C90604D5521EFAD17349079A70
:1049E0000A6008B0F0BDC046032906D0022907D0EE
:1049F000012908D15100816170475100016270475F
:104A00005100C16170475100194341607047000077
:104A1000F0B585B000930292644A002515600268E3
:104A2000282313430360EA4304924906090E0191C7
:104A300001212C4603952B465D4A126805682D0717
:104A400004D4521EFAD1594A049D1560C568083D28
:104A50000322D5410122052D0CD818277D442D793C
:104A60006D00AF4402070F201420019A82600827CE
:104A70001A4618E0036818241C4324239C4304604E
:104A8000082710E0029A82601A4627460BE00125AB
:104A9000039A002A02D000211A4603E0009A82609D
:104AA0001A462746039503683C24A343FCB21C43E3
:104AB0000460002903D0002A3C461346BCD03C4B7E
:104AC0001B680468E40604D55B1EFAD13748049BD2
:104AD00003600A43D0B205B0F0BDC046F0B586B061
:104AE0000093039204463148002303602068282283
:104AF00002432260D84305904806000E0290012729
:104B00000B9801901D4604931A46294800682368B3
:104B10001B0704D4401EFAD1244805990160E668B9
:104B2000083E0320C6410120052E0CD81823C0469C
:104B30007E4436797600B74402060E201120029892
:104B4000A060082318E0216818220A4324218A4320
:104B50002260082311E00398A06009E004980199FD
:104B6000884208D201460098405CA060491C04912C
:104B700010462B4601E00027104621683C22914355
:104B8000DAB20A432260002F03D000281D460246F5
:104B9000BBD0074800682168C90604D5401EFAD179
:104BA000024805990160049806B0F0BD8408002011
:104BB0000C00002070B5164D08210024284622461E
:104BC000FFF7E6FB042128462246FFF7E1FB02211E
:104BD00028462246FFF7DCFB2021012628463246E4
:104BE000FFF7D6FB403D402128463246FFF7D0FB79
:104BF000B10328463246FFF7CBFBC3204000E34910
:104C00000A5CFE2313400B540248C461066070BD69
:104C1000804000407848004010B501F0FBF962B6D2
:104C20000C4C0020207001F0C5F801F00DF900F0E7
:104C3000DBF800F019F9FEF769FDFEF741FC0649C3
:104C40000870FEF76BFAFFF76BF900F079FC0120B2
:104C5000207010BD7302002075020020B0B586B030
:104C600001AD00242C710D4801900D492846FDF737
:104C700063FB2046FEF752F92846FEF791F9FEF74E
:104C8000F3F80120FEF74AF906A12046FEF7E6F9FF
:104C900006A12046FEF7E2F906B0B0BD504E4C5FCB
:104CA0007C04002050414E454C000000496E697460
:104CB00069616C697A656400F0B581B0FFF73AFD0F
:104CC000274D68707D24A2002648274902F072F91A
:104CD000FFF7E2FB002814D0FFF734FCFEF740F8A2
:104CE000E20022A0204902F065F9244E7B362448D8
:104CF0003146FDF72DFB002805D003202870012444
:104D000026E0002424E01F4D00242C866C61AC6159
:104D1000EC612C626C62AC62EC621B4829460CC8E8
:104D20000CC18CC88CC128463146FDF705FBFDF748
:104D30003AFB222129542818C4700A2181700D21C0
:104D400041700949114A284602F034F9002802D17D
:104D5000204601B0F0BD03200149087001F05CF865
:104D60004C020020149800007F98000041542B430F
:104D70004744434F4E543F0D0A0000007C0400207E
:104D800080030020E8020020D0990000C409000040
:104D9000B0B50446EC4D2846FDF705FB2C54281809
:104DA00000214170B0BDC046B0B50C460546FDF7C8
:104DB000FAFA2C54281800214170B0BD6420FEF787
:104DC000CDFE72B601F004FA0220FEF7CDF9FFF72E
:104DD00051F9FFF7A1F901F029F80000014A5180CB
:104DE0001080704798020020F0B581B001F0F0F912
:104DF000FFF740F9184D194C12222846214601F0C0
:104E0000DFF8288A164988421FD1E889AA2802D1EA
:104E10003148012101701120E881124908682027DA
:104E200038430860122620463146FFF793F828469B
:104E30002146324602F08EF828462146324601F0DD
:104E4000BFF808490868B8430860FFF7BBF801F0ED
:104E500079F901B0F0BDC0461A000020000410002E
:104E60003A5A000000C0004070B501F08DF9FFF71C
:104E700001F902F025FE3320C200154802801548D2
:104E8000012101800905D54C204601F099F82088C0
:104E90003F49884208D010480078002802D0FEF729
:104EA00095FA01E000F01EF83120C5006619FFF701
:104EB00089F801F03BF97068084962590A60486056
:104EC0001920000121184968054A205803C270BD05
:104ED000DC01002070020020DA01002058060020CA
:104EE00060060020F0B581B0FF2738468830BB4C03
:104EF00006222254612080002D2121522448208046
:104F0000204616302349FDF7F3F9A01C224D0E264A
:104F100029463246FDF7ECF9152000011E212154E7
:104F200038465030052121543120C0001B49215002
:104F3000192109011A4A62502922D2003A23A354A6
:104F400048371222E2552018164A42606018164966
:104F5000416020465A3029463246FDF7C9F978208B
:104F600012492152204678300021817020467F303E
:104F70000F490722FDF7BCF993340E490922204658
:104F8000FDF7B6F901F0CCFC01B0F0BD3000002017
:104F9000BC1A0000E7970000A89800004F232D9549
:104FA000B47D2315B79B3840A168524032310000D0
:104FB000E09700009C980000F0B591B001204102FC
:104FC000614C2046FDF7ADF904AD60A1624A284668
:104FD00002F09EFD20462946FDF7AEF93E215F48CE
:104FE000415C00290AD03F21455C2046FDF7DBF9F2
:104FF0002018012D09D15B49182208E02046FDF751
:10500000D2F920185849142201E055491A22FDF717
:105010006FF9564805782046FDF7C5F92018002D90
:1050200011D00021C1710A2181716B2141714F2181
:1050300001712021C170432181705421417052219E
:1050400001704B4904E04B490922FDF751F94A49E7
:10505000C81D8D1D4E1D8A1CCF1C13783A780988F7
:1050600036782D780078009101960295039004A877
:1050700042A102F04DFD4C4805782046FDF793F91A
:105080002018002D02D049490A2201E048490E2289
:10509000FDF72EF904A92046FDF74EF9454E357867
:1050A000FDF781F92018022D02D344490E2201E0B8
:1050B00041491222FDF71CF9727804AD40A128463F
:1050C00002F026FD20462946FDF736F935782046C0
:1050D000FDF769F92018042D02D33D490D2201E0A6
:1050E0003A491122FDF704F92046FDF75CF9201832
:1050F000052D02D33849122201E036491622FDF768
:10510000F7F8C3204000354E355C2046FDF74BF9DB
:105110002018E90704D133490B22FDF7E9F803E031
:105120002F490A22FDF7E4F8FF208830335C04ACF5
:105130002DA120462A4602F0EBFC03482146FDF74C
:10514000FBF811B0F0BDC0466C0600205665723AFF
:105150002025730A00000000B4990000A802002076
:105160004C9900003499000020990000750200203D
:10517000B80500208C990000CC01002044617465C2
:105180003A20253032642F253032642F25303264A6
:105190000A54696D653A20253032643A253032640C
:1051A0003A253032640A0000790200209899000004
:1051B000A49900004C0200200C990000FC9800000B
:1051C0005349473A2025640A0000000078990000FE
:1051D00068990000E4980000D0980000300000209A
:1051E000C4980000B8980000537461742042797428
:1051F00065203A20253033640A436F6E74726F6CF9
:1052000020427974653A20253033640A000000009A
:10521000F0B587B0BC480078032802D30020BA4913
:105220000870BA4A1078401CC1B249087E2900D9DA
:1052300001201070B64C601DFF210191FC31FDF77B
:1052400070F8B44905222046FDF752F8B2492046CD
:10525000FDF772F82C252846FFF79AFDAF4FBB7972
:105260007A79F879009002AEAD49304602F050FCF0
:1052700020463146FDF760F82846FFF789FD0024F7
:1052800006940594049403940294FA78BB783888C1
:1052900000903046A24902F03BFC9D4F3846314613
:1052A000FDF74AF82846FFF773FD06940594049429
:1052B000039402949B4842789B49304602F028FCB4
:1052C00038463146FDF738F82846FFF761FD069469
:1052D00005940494039402948B48007802282ED0FD
:1052E000012856D0002800D089E0904F3A8802ADBE
:1052F0008D49284602F00CFC854C20462946FDF7D6
:105300001BF82C263046FFF743FD7A88284686494D
:1053100002F0FEFB20462946FDF70EF83046FFF767
:1053200037FDBA882846804902F0F2FB204629461C
:10533000FDF702F83046FFF72BFDBC1D52E07B4C19
:10534000A28B02AD7849284602F0E2FB704F384646
:105350002946FCF7F1FF2C263046FFF719FDE28BBA
:105360002846714902F0D4FB38462946FCF7E4FF91
:105370003046FFF70DFD228C28466B4902F0C8FB32
:1053800038462946FCF7D8FF3046FFF701FD2234A6
:1053900028E0664CE28902AD6349284602F0B8FB7A
:1053A0005B4F38462946FCF7C7FF2C263046FFF7EF
:1053B000EFFC228A28465C4902F0AAFB38462946BF
:1053C000FCF7BAFF3046FFF7E3FC628A28465649ED
:1053D00002F09EFB38462946FCF7AEFF3046FFF749
:1053E000D7FC1434228802AC4F49204602F090FBCF
:1053F00047482146FCF7A0FF2C20FFF7C9FC4B488B
:10540000426B02AD484C2846214602F081FB4048E1
:1054100006462946FCF790FF2C273846FFF7B8FCD4
:105420004248826B2846214602F072FB30463446E1
:105430002946FCF781FF3846FFF7AAFCC32040004D
:105440003B4E325C2846384902F062FB2046294632
:10545000FCF772FF3846FFF79BFC019C2046883022
:10546000325C2846304902F053FB29482946FCF7B4
:1054700063FF3846FFF78CFC234800782DA1085CB9
:10548000FFF786FC3846FFF783FC2920C000335C19
:1054900020464830325C2849284602F039FB1C4E31
:1054A00030462946FCF748FF3846FFF771FC1520C7
:1054B00000011F490B5C50340A5D28461E4902F06A
:1054C00027FB30462946FCF737FF3846FFF760FCDC
:1054D0000E4802782846144902F01AFB3046294645
:1054E000FCF72AFF3846FFF753FC3046FCF75BFF1A
:1054F000301812490A22FCF7FBFE03490878401CC9
:10550000087007B0F0BDC046680600208E05002078
:105510006C060020F59700007C040020CC010020E0
:10552000FE9700004C02002011980000A802002005
:1055300030000020525942000E980000B49900003B
:10554000B0B5084800210170184C216000F00CF83B
:105550007D25A800FEF702FB01202060E800FEF791
:10556000FDFAB0BD4C020020B0B50D4800F0EEFDD4
:10557000E12041020B4C204601F00CF900F020FC28
:1055800001252046294601F001F9074880212A46D5
:10559000FEF7FEFE05480021016005480170B0BD20
:1055A0001100000400100740404000405C480040EB
:1055B0007902002010B50446FCF796FE0068005DF5
:1055C0003E210140481E814120462C38421E904118
:1055D00008402A3C611E8C410440204610BD00005A
:1055E000B0B590B00B4604464430214640312246C7
:1055F000383225463435089509920A910B90204699
:105600002C3007902046243006902046203005900C
:1056100020461C3004900CA80390204610300290C5
:105620000DA80190201D00900DA10EAA184623463A
:1056300000F06AF801460020002907D00EA94A8828
:105640008988090489180A4A914201D010B0B0BD76
:105650000D9820730C982076012010B0B0BDC04684
:1056600074546664666469696666636663665F004F
:1056700047474100B0B590B00B46044609A80790D3
:105680000AA806902046183005900BA804902046E2
:10569000103003900CA802902046083001900DA80D
:1056A000009015A10EAA1846234600F02DF80146D9
:1056B0000020002907D00EA94A8889880904891882
:1056C000104A914201D010B0B0BD0AA90BAA0CAB90
:1056D0000DAD2D78542DF6D11B784D2BF3D11278CA
:1056E0004E2AF0D109784B29EDD120200999215477
:1056F000012010B0B0BDC046746663666366636621
:10570000633B63005654470082B0F0B593B00C463B
:1057100005461892199318A8129008784142414101
:10572000002800D13BE300260A46F14309910121FC
:105730000D9111462B4606E0641C20784142414100
:10574000002800D12BE30E913B2802D102210D9EAF
:1057500017E3591E1A468A41374632430426D107B9
:1057600000D1C5E04438302800D9C2E0800003A150
:1057700008580C9731463E468746C04641580000BF
:10578000835D0000835D0000835D0000835D000099
:10579000835D0000835D0000835D0000835D000089
:1057A000835D0000835D0000835D0000835D000079
:1057B000835D0000835D0000835D0000F9580000F8
:1057C000835D0000835D0000835D0000835D000059
:1057D000835D0000835D0000835D0000835D000049
:1057E000835D0000835D0000615D0000835D00005B
:1057F000835D0000835D00006B5900008359000049
:10580000835D00000D5A0000835D0000835D000091
:10581000F95A0000835D0000835D0000835D000095
:10582000835D0000835D0000835D0000835D0000F8
:10583000835D0000835D00002B5B0000635B000064
:105840001298011D12910668002B0998014607461F
:1058500044D018780B93FFF7ADFE0B9B00280998F6
:10586000014607463AD00A96FCF73EFD0168002043
:1058700002460C9E0B9B9B5CCB5C202B00D0D7E19F
:10588000521C062AF6D10B9E317811A8017071784E
:10589000417000228270B17810AF3970BA70F1781F
:1058A00079700FAB05939A700792317919707179FD
:1058B00059700A23069311461A46FCF785FD049099
:1058C00038460799069AFCF77FFD07460598079921
:1058D000069AFCF779FD049933460A9E708077702A
:1058E000317000210D980C9E002800D038E248E26B
:1058F000002331463E4644E21298011D1291006891
:105900000021002B0A46099F069705973E4600D1C5
:105910001BE202900A9118781F46FFF74BFE002801
:1059200000D147E1FCF7E0FC3A7801688A5C04208A
:105930000790202A3B460B9700D08DE108945B1C12
:1059400000242746052F0C9E01D3224600E00122A9
:10595000052F00D189E1781CDE5D8E5D202E074683
:10596000F0D0089C0C9E0B9B78E1002B00D113E13A
:105970001F783846FFF71EFE002800D00DE10746CD
:105980000BE10026002B304600D1CAE11F783846D3
:105990000B93FFF70FFE0B9B0028304600D1C0E1B0
:1059A000453F04200A900021122F00D9C0E14E206B
:1059B000BA0002A39A580B9B9746C046095A0000AA
:1059C000315D0000315D0000315D0000315D00009F
:1059D000315D0000315D0000315D0000315D00008F
:1059E000235D0000315D0000315D0000315D00008D
:1059F000315D00001D5D0000315D0000315D000083
:105A0000315D0000215D000045208AE1002B00D1BE
:105A1000C9E00B931F783846FFF7CCFD0022002821
:105A200000D1CFE0099E07920B9B08940EE0012065
:105A30000A90099E5F785B1C38461C46FFF7BAFD4A
:105A400023460028089C0A9A00D1B0E0FFB2741CDB
:105A500003D1002A01D12B2FE9D0002C07D1002A35
:105A600005D12D2F03D109980A900646E2E70A9244
:105A70000B93FCF739FC0068C05D20280FD1002C87
:105A800000D10026CA48C01B0A210691FCF728FF56
:105A900086420CDD0798002821D0082120E0079AD3
:105AA000002A0B9B0BD12E2F09D1012015E007985E
:105AB000069948434E43F619303E002110E0042178
:105AC000202F00D063E1002C00D060E10A9802434F
:105AD00000D05CE10020099E0A900790AAE704210B
:105AE0000B9B00290790A5D0082900D052E1089C03
:105AF0000A9A711C6BD070E00027002B0A9700D126
:105B00008BE011A90A220B931846FCF75DFC0746AF
:105B100011980078FFF74EFD421E01469141002882
:105B20007AD089000C9E0B9B7EE008941298011D90
:105B300012910468002B10D01F7838461E46FFF7DC
:105B400039FD002809D0761C27703778641C384648
:105B5000FFF730FD761C0028F6D100202070089C4D
:105B6000FEE008941298011D129104210024002BDC
:105B70006CD00A91197824290CD10068079001266D
:105B8000062E58D0985D1F46FFF714FD3B46761C45
:105B90000028F5D10A9959E000271298011D1291A9
:105BA00000680770DCE00022099E07921346711C12
:105BB0000DD012E03A46099F069705973E460A998E
:105BC0000298C2E0099E07920B9B711C05D10798B1
:105BD000104302D004210C9E26E017460B93089434
:105BE000129A101D12900120079C002C034600D031
:105BF0002346002400290A9400D01C4612685460F1
:105C000000290A9900D03146002F089C0B9B00D038
:105C100038464843106005E00B9B1298011D129115
:105C2000006807600C9E0A99002900D0A9E097E05F
:105C300004210B9B58E6591C0522079E30461C4642
:105C4000FCF756FB2346002171710D9C002C089C2B
:105C50000C9E00D084E094E00D9A0C9E0799002AD7
:105C600008D01A46002979D17AE01121089C0B9BB3
:105C7000002AF6D1197811A80170597841700027CF
:105C80008770997810AA059211709770D978517021
:105C90000FAA0792977019791170597951700A26D5
:105CA00039463246FCF790FB069005983946324655
:105CB000FCF78AFB05900798394604963246FCF7B4
:105CC00083FB06460B98C21D80792E28019639D198
:105CD0001746FCF709FB39463B780268D25C202A5C
:105CE00008942AD1006803900027304C0A460B9292
:105CF0005678039822460794845D04994F43FF1811
:105D0000303F1046FCF7CCFD0B9A521C0799142922
:105D100016D3202C33460446E9D011E0532000E08E
:105D2000572012990A1D1292096808600D990A9667
:105D300000290C9E0A9913D123E000271B480A462C
:105D40004743089C0A990298019EC7708670059B7C
:105D50004370069B03700C9E002901D0134610E08F
:105D60002F783846FFF726FC6D1C0028F8D100215B
:105D70002C2F2B4600D00B462C2F01D009982D1824
:105D80000C9E002900D1D7E4022906D1D4E4089C56
:105D90000C9E49E70C9E089C46E704290E990120B9
:105DA000084013B0F0BC02BC02B0084740420F00EC
:105DB0002F0000800120C007074908607047C046D7
:105DC00001204003044908607047C04601200003D9
:105DD000014908607047C04600E100E0BFF34F8F03
:105DE000174818490160BFF34F8F00BFFDE7C04659
:105DF000BFF34F8F124813490160BFF34F8F00BFAD
:105E0000FDE7C046BFF34F8F0D480E490160BFF359
:105E10004F8F00BFFDE7C046BFF34F8F08480949C9
:105E20000160BFF34F8F00BFFDE7C046BFF34F8F48
:105E3000034804490160BFF34F8F00BFFDE7C04630
:105E40000CED00E00400FA0580B5FEF7B3FE80BD5E
:105E500080B500F04BFD80BD10B5544C2078032870
:105E600001D300F0BBFF207805282CD878440079B6
:105E70004000874402060E16192300F0DBFA60800A
:105E800010BD7D200001FA21FEF7A8FFFDF772FE8C
:105E900010BD7D20C000C821FEF7A0FFFEF70CFF5B
:105EA00010BDFCF717FF10BD7D20C0000146FA3978
:105EB000FEF794FF0020FDF721FB10BD7D20C00000
:105EC000411CFEF78BFF10BDB0B5094C3E25605D4F
:105ED000002805D13F20205C012801D100F06AFE96
:105EE000605D002800D0B0BDFDF7C8FAB0BDC04667
:105EF000A8020020B0B5FEF70DFB0A4C2070FEF79B
:105F000011FB6070FEF716FBA070074DA888FCF728
:105F100095FCA061E1616888FCF790FC20626162F9
:105F2000B0BDC046900500201000002010B5094803
:105F3000007800280CD0084C2046FDF7B1FB07483C
:105F40000178002904D12188172901D3012101708A
:105F500010BDC04675020020B8050020790200205F
:105F600070B5E74D2878002805D0FCF769FF0028B8
:105F700001D1FEF773FE0E4C2078002803D0FDF708
:105F800017FC002020700B4E308800280CD0FFF743
:105F90003FF9002434802878052805D10648214699
:105FA00000F034F90548048070BDC0464C02002062
:105FB000780200206E0200206C060020C40500203C
:105FC000F0B581B006465018009088421FD914469B
:105FD0000D46002704E03F1DE8190099884216D2BB
:105FE000E819FEF74FF8010EF155791CA14202D2D3
:105FF000F119020C4A70B91CA14202D2F119020A2D
:106000008A70F91CA142E6D2F119C870E3E701B029
:10601000F0BD0000F0B581B000F0C2F80C20FDF733
:10602000D3F802242046FDF799F81820FDF7ACF9C3
:10603000FDF77AF8334F3868334901403348081880
:10604000386004263046FDF79FF9072000252946D1
:10605000FDF73CF90C3F3D602D4F3846FDF784F8C5
:10606000202138462A46FDF759F9FDF7B3F87D217E
:10607000C900FCF715FC01463046FDF78BF8254EAC
:106080003046FDF771F8244F3946383930462A46F4
:10609000FDF744F9214E3046FDF766F801208106F0
:1060A00030462A46FDF73AF938463038FDF75CF8B5
:1060B0002046FDF759F800F07FF9386AFF21884340
:1060C0003862386AEE2202433A6208023968814334
:1060D000396033204002396801433960386810491B
:1060E00008403860DD2000043A6802433A60083F07
:1060F00038680840992109044018386000F01AF8FF
:1061000001B0F0BD400200400000F0FF3EC00800BA
:106110000D004066913DC05F38000040123C8C7F0E
:10612000FFFF00FF30480021016070472E4800212A
:10613000016070472C480021016070472A48002107
:1061400001607047284800210160704710B5010EBA
:10615000064A8B58FF242406A0430124844023438D
:106160008B508858A043885010BDC046080000409E
:106170001D485921016016210160882101600168D4
:106180000029F6D07047C0461748592101601621F2
:1061900001608821016001680029F6D07047C0467F
:1061A00011485921016016210160882101600168B0
:1061B0000029F6D07047C0460B48592101601621CE
:1061C00001608821016001680029F6D07047C0464F
:1061D000054859210160162101608821016001688C
:1061E0000029F6D07047C046000100400278002A1E
:1061F00008D005490A608A691202FCD44278401C22
:10620000002AF7D17047C04600100740F0B587B0AC
:106210000F460546FEF78EFA394C6070FEF73CF9E2
:1062200000281CD06078082819D93E463846FDF76A
:1062300065F9002817D003962846FCF7B4F882B217
:1062400004A830A1029001F063FC2F4E32213046A9
:10625000FCF767F8002F019509D02D4808E00220CF
:106260002070002748E004202070002744E02748E1
:106270007D24E2002749009200F09CFE264831462A
:106280002CC82CC102880A80807888703037377318
:1062900030460299FCF750F8FCF785F80D2131548F
:1062A00030180A21417000278770A5001B4930462D
:1062B0002A4600F07FFE002805D00198FFF796FFE0
:1062C0002846FDF74BFC16481249FCF741F8002818
:1062D000039811D000F016FE002801D001270BE032
:1062E00010A00C4C2146009D2A4600F063FE11A030
:1062F00021462A4600F05EFE384607B0F0BDC04693
:106300004C02002025640000E8020020C099000033
:106310002C9800007F980000E49900007D98000010
:106320008003002041542B544350434C4F53453D70
:106330003000000041542B544350434C4F53453DD3
:1063400031000000F0B581B00446FFF735FFFDF7DE
:1063500091FE124F3868202528433860104E1149AD
:1063600012223046FFF72CFE308A0F49884213D1A3
:10637000B4810E48308112240A482146FDF7EAFD17
:1063800030460849224600F0E5FD3868A8433860E9
:10639000FDF718FEFFF7D2FE01B0F0BD00C00040CF
:1063A0001A000020000410003A5A0000A3A50000C3
:1063B00080B500F0E5F880BDB0B50E4C2568FCF75F
:1063C00029FF0D49086007212940022902D08800D1
:1063D0000A49085821690F220A40511CFCF760FA4B
:1063E00007490860074940180749FCF759FA074967
:1063F0000860B0BD1002004008000020C0970000F7
:106400000C00002020A1070040420F0004000020E3
:1064100080B5FFF7ADFE0720000505490A688243F5
:106420000A600A6802430A60FFF77CFE80BDC0462E
:1064300000020040F0B581B0394D28466230142189
:10644000FBF76FFF00242C822C606C60AC60EC606A
:106450007D27BA003348344E314600F0ABFD322080
:10646000FDF77CFBFD00314831462A4600F0A2FDD5
:106470002E4831462A4600F09DFD3F012B4831460B
:106480003A4600F097FD294831463A4600F092FD21
:1064900027A031463A4600F08DFD244831462A4671
:1064A00000F088FD002821D01E481F4C21462A46B6
:1064B00000F080FD3220FDF751FB21A021462A4645
:1064C00000F078FD21A021462A4600F073FD23A0AC
:1064D000254A214600F06EFD24482549FBF738FF88
:1064E000002806D023480124047015E021480470D8
:1064F00012E01E4820A1FBF72BFF002804D0C11C8E
:1065000007480F22FBF738FF1A48012404700020C7
:10651000FDF708FB19480470204601B0F0BDC046E5
:106520007C040020149800007F9800005F98000011
:1065300041542B435343533D22495241220D0A00FB
:1065400041542B434D47463D310D0A0041542B43E6
:106550004E4D493D322C310D0A00000041542B476D
:10656000534E0D0A00000000B80B0000800300200D
:10657000829800004C0200204E3A20007402002055
:10658000B0B528480168002902D00168491E0160A1
:1065900025490888401C088008888008F52822D3EF
:1065A000002008802149097800291CD020490A8848
:1065B000521C0A801F4A13885C1C14806124A400AA
:1065C000EE4D2C5BA34203D91B4B01241C80108091
:1065D0000A883C2A07D3194A13885B1C1380088059
:1065E000118810291BD2164801884A1C02801549BF
:1065F0000B8892B29A4201D300220280038812488B
:10660000026849888B4202D2002A05D0B0BD002A18
:10661000FCD000210160B0BD01210160B0BD10803F
:10662000FFF7E6FB30060020CA01002073020020BD
:10663000C8010020D60100206E020020C405002001
:10664000880200209802002058480040B0B50E484B
:106650000168C90516D50168C90713D00B490A8816
:106660000B4B02E00468E4070BD094B205461C3DD6
:106670002D681D55521C94B2A4087E2CF2D900221C
:10668000F0E70A80B0BDC0461C2007406C0800201F
:1066900098080020F0B581B02C4E3068C00553D565
:1066A0003068C00750D02A4805882A4C2C4B304F00
:1066B00003E038703068C00744D0A9B230461C38B7
:1066C000006860546D1CA9B2F52900D90025234942
:1066D0000978002910D02049097800290CD119889F
:1066E000C2B20A2A15D100201E4A50541B49087014
:1066F00001201949087010E020461BA1FBF728FE75
:10670000174A002809D00120144908700020108081
:1067100003E0144A5054481C18803878002808D0E8
:10672000204614A1FBF714FE0D4B0028C2D0002018
:10673000BFE7204612A1FBF70BFE094B0028B9D09A
:106740000120B6E70248058001B0F0BD1C100740EB
:10675000C205002080030020780200202A060020C5
:106760002C060020C6050020524543563A00000082
:106770006C02002045535441543A20300000000080
:1067800045535441543A20310000000042680A4306
:1067900042607047F0B589B0029104464D4803A9A4
:1067A0002CC82CC12CC82CC14B48844217D04B4854
:1067B00020180C21C8410628029D1BD87844007976
:1067C00040008744031A222930373E0044480146DE
:1067D0000839096849004E0F4068000437E0404816
:1067E00001460839096849014E0F40680005020F4B
:1067F000029D2DE0002632462AE0394801684069B2
:106800000F2202404801460F22E035480168490046
:106810004E0F406900061AE03148016849034E0FE7
:106820004069000513E02E48016849024E0F406997
:1068300000040CE02A48016849054E0F4069000336
:1068400005E02748016849044E0F40690002020F25
:10685000002020630327E760A06822490140A1606F
:10686000042E06D0012E16D101920125FCF700FD61
:106870000CE001921C4820180D21C8410425032872
:1068800002D8FCF7ADFC01E0FCF7B6FCA90003AAB6
:106890005050029D019A002D19D0B00003A908584C
:1068A000511CFBF7FDFF0646680830182946FBF728
:1068B000F7FF801E010C07D0E80030182946FBF7CF
:1068C000EFFF0009801E01E039070843606209B04C
:1068D000F0BDC046A89700000000074000F0F8BFD8
:1068E0001C0200400FFFF0FF0000F9BF80B53E2002
:1068F0000A490B5CC320400020490A5C002B03D0EE
:1069000088231A43134603E080231A43F7231340D6
:106910000B54FDF74BFEFDF751FD80BDA802002092
:10692000F0B581B03320C000124F3880FFF72CFC47
:10693000FDF7A0FB1049086820263043086039881D
:10694000012004052046FDF705FB3A880B4D28463B
:10695000214600F0FFFA3A8828462146FFF730FB2F
:1069600005490868B0430860FDF72CFBFFF7DEFB24
:1069700001B0F0BDDC01002000C00040300000206C
:10698000F0B581B05B480078002800D1B0E05AA093
:106990005E495F4A00F00EFB5E485FA1FBF7D8FC42
:1069A000002800D1A4E006462A21FBF7F2FC801B58
:1069B0001F2800DA9CE05A4D28463146FEF710FEAB
:1069C000E86900283ED0281D01F024F806460F464D
:1069D0005448066041602846103001F01BF8524CC4
:1069E00003C45248524932463B46083C01F090F8F5
:1069F0000CCC50484E4901F08BF8287B4E49087664
:106A0000287E48764DA04149414A00F0D3FA4148DA
:106A10004FA1FBF79DFC00286AD004462A21FBF712
:106A2000B8FC001B1F2863DB4B482146FEF722FE03
:106A300001F01CF802460B46484849A101F068F8ED
:106A400001B0F0BD4B2004012246C83A46A02F49B0
:106A500000F0B0FA2046FDF781F82E4846A1FBF77A
:106A600077FC002817D02B4845A1FBF771FC0028C4
:106A700004D0011D2D480922FBF77EFC254842A1C8
:106A8000FBF766FC002833D0011D2A480922FBF7DA
:106A900073FC01B0F0BD7D2005013D481B492A462D
:106AA00000F088FA002818D0394818492A4600F022
:106AB00081FA2046FDF752F8164836A1FBF748FC4C
:106AC00000280AD034A0114C21462A4600F072FA60
:106AD0002F4821462A4600F06DFA144830210181E2
:106AE000324A334B036042601248036042600181C6
:106AF00001B0F0BD720200204154244D594750535B
:106B0000504F533D302C300D0A0000007F9800009C
:106B1000DC05000080030020244750474741000067
:106B2000E001002090020020A0020020980A00202E
:106B300088980000A40A00202C0200204154244D13
:106B400059475053504F533D342C300D0A0000002C
:106B5000244750565447000034060020B00A002055
:106B60002530332E3066000041542B4349504753A3
:106B70004D4C4F430D0A0000433A204F00000000E7
:106B80006174223A000000006E67223A00000000A3
:106B90001B9800004652450041542B43495047532F
:106BA0004D4C4F433D300D0A000000003030303076
:106BB00030302E30F0B583B0814800260682066062
:106BC000C681C6617F4FDD200290B8709120787039
:106BD000CC20019038704B2081007B48FBF7A1FB53
:106BE0007A4C26807A4DB85D2860A8690002FCD4F2
:106BF0000220FCF7B3FF761C032EF4D12088402836
:106C00000AD80025734E0220FCF7A8FFB54203D82E
:106C10006D1C20884128F6D37D208000FCF79EFF64
:106C20002088002803D0422809D203B0F0BD0021FB
:106C3000634A1160D181D16111824228F5D366483F
:106C400000214180604B9A78029C62401B78019C35
:106C50006340134300D103215B4E725C4270721893
:106C600053780370D3780468037093784370544D5D
:106C70002C80537904680370EC810B1DF35C437026
:106C80000368AB83D37903709379437003686B8097
:106C9000537A03700B460833F35C437003682B820E
:106CA000D37A0370937A43700368EB830B460C33FB
:106CB000F35CAB80537B6B82937B2B84537C0370A0
:106CC0000B461033F35C4370D37B83700368EB8017
:106CD0000B461433F35C0370D37C4370937C837056
:106CE0000368AB82D37D0370937D4370537D8370C3
:106CF00003686B84937E0370537E43700B46183396
:106D0000F35C837003682B81537F03700B461C3345
:106D1000F35C4370D37E83700368EB820B462033B1
:106D2000F35C0370D37F4370937F83700368AB84FD
:106D30002323D35C03702223D35C43702123D35CD1
:106D4000837003686B812623D35C03702523D35C97
:106D500043700B462433F35C837003682B83292331
:106D6000D35C03700B462833F35C43702723D35C5A
:106D700083700368EB840B462C33F35C03702B2386
:106D8000D35C43702A23D35C837003686B632F2327
:106D9000D35C03702E23D35C43702D23D35C8370AC
:106DA0000368AB634431715C01704321515C4170F5
:106DB0000068FF210231E987A88703B0F0BDC04613
:106DC000A8020020B60A0020980800206C080020C5
:106DD00000200740CE07000068020020F0B587B011
:106DE0007D20C2003CA03F4900F0E4F83E483FA1AE
:106DF000FBF7AEFA00286CD0064601460B3104AF13
:106E0000022438462246FBF7B7FAFBF715FB384950
:106E10000390C8700D463146083138462246FBF7CC
:106E2000ABFAFBF709FB0290A870711D38462246A9
:106E3000FBF7A2FAFBF700FB05462D48058031461B
:106E40000E3138462246FBF797FAFBF7F5FA019028
:106E5000274948713146113138462246FBF78CFAF2
:106E6000FBF7EAFA22498871143638463146224641
:106E7000FBF782FAFBF7E0FA1D49C871A9B217299E
:106E800024D31C4800780124002820D01A48028806
:106E90008A4217D1C178039AD2B2511A2D225201D7
:106EA0004A438178029BDBB2591A144B4B430A3395
:106EB00099184079019AD2B2101A3C22424388189C
:106EC000152804D30A48FCF745FC00E000240C48D0
:106ED000047007B0F0BDC04641542B43434C4B3FB8
:106EE0000D0A00007F980000800300204C4B3A0000
:106EF000CC01002075020020B8050020C0A80000C9
:106F000079020020F0B581B0044600250EA6204687
:106F1000FDF7A4FB002810D10A483146FBF718FA08
:106F2000002700280AD16420FCF718FEFDF702FCB8
:106F3000681C1D2D0546EAD300E00127384601B044
:106F4000F0BDC04680030020444953434F4E4E4598
:106F500043540000F0B581B00646501800908842B6
:106F600026D914460D46002706E0FDF7F3F83F1D2D
:106F7000E819009988421BD2F05D0106781CA042F6
:106F800004D2F01940780004084300E00846B91C18
:106F9000A14204D2F11989780902014300E00146B7
:106FA000E819FA1CA242E0D2F219D2781143DCE7C8
:106FB00001B0F0BDF0B581B0009107461D481E49F3
:106FC0008A4201D9451C09E0824202D97D20850010
:106FD00004E0632A01D80A2500E03225104629463C
:106FE000FBF75EFC0646FCF77BFA3878002809D0F0
:106FF00012498A691202FCD408607A1C7878002849
:107000001746F6D10E4F38460099FBF7A1F9002834
:107010000CD138460B49FBF79BF90024002806D118
:107020003046FCF79BFD6D1EEDD100E001242046AB
:1070300001B0F0BDE70300000F270000001007407B
:107040008003002082980000B0B50C460546084A2F
:10705000084BFBF7BDFA084A084BFBF707FA2A462C
:107060002346FBF7B5FA064A064BFBF7FFF9B0BD1E
:1070700000D864FC600181BE03E35F521C0A06BFB6
:1070800080035D72111C913FF0B58FB00C4607462E
:1070900000F094FA06460D463846214600F0EEF818
:1070A0000990089138462146FFF7CEFF0D900E91CA
:1070B0003846214600F0C2F804460A913046294677
:1070C00000F08CFC00220692594BFBF781FA02F08B
:1070D000E3F902460B46FBF77BFA06460C900B9150
:1070E0000998089900F07AFC0890079102460B462F
:1070F000FBF7BCF90590049102F05CF90746039197
:1071000020460A9900F06AFC0A90099102F052F9AF
:10711000044601900D46009130460B993A46039B78
:10712000FBF756FA039002910D9F38460E9E3146AA
:107130003A463346FBF79AF922462B46FBF748FAC4
:1071400002460B4603980299FBF734FA039002912A
:107150000598049902F07EF805900491354B384665
:107160003146069E3246FBF733FA0C9A0B9D2B46AE
:10717000FBF72EFA019A009BFBF72AFA059A049B6B
:10718000FBF726FA02460B4603980299FBF76EF9C5
:1071900005900491089807993246264BFBF718FA98
:1071A00002F008F908900F460C9C2046294632460A
:1071B0001F4BFBF70DFA02460B4620462946FBF70C
:1071C00007FA089A3B46FBF703FA02460B46059876
:1071D0000499FBF7EFF90C900B910A980999024674
:1071E0000B46FBF743F902F0E5F80A900F46124B05
:1071F0000D9C20460E9D29463246FBF7E9F90246D2
:107200000B4620462946FBF7E3F90A9A3B46FBF773
:10721000DFF902460B460C980B99FBF727F900F0B3
:107220003FFC3246034BFBF7D3F90FB0F0BDC0462D
:107230000000E03F000010400000F4BFB0B50C4675
:107240000546084A084BFBF7C3F9084A084BFBF709
:107250000DF92A462346FBF7BBF9064A064BFBF716
:1072600005F9B0BD0CDB60F2502524BF2AC6F99B9E
:10727000E193E140C91F0C3C77587640F0B581B0EE
:107280000C460546204A214BFBF7A2F9204A214B28
:10729000FBF7ECF82A462346FBF79AF91E4A1F4BE8
:1072A000FBF7E4F804460D46FBF7D6FA2D21CF0094
:1072B000B8420CDD1A4E0022204629463346FBF721
:1072C000D5F804460D46FBF7C7FAB842F3DC0022B6
:1072D000204629461346FBF787FA00280FD1114EA6
:1072E0000027204629463A463346FBF7BFF80446B6
:1072F0000D463A463B46FBF761FA0028F0D120469E
:10730000294601B0F0BDC046C0AB8A15DADE333F76
:107310002F8672A21894E14046CEC29E76877140B5
:10732000008076C000807640F0B587B01C461546D8
:1073300000F054FB064606900F460591284621466C
:1073400000F04CFB044604900D4603914448454927
:1073500000F044FB01F07EFF029001913046394677
:1073600001F078FF06460F462046294601F072FFDD
:1073700002460B4630463946FBF72AF902460B46D1
:1073800002980199FBF78CF904460D460698059979
:1073900002F082F806460F460498039902F07CF842
:1073A00002460B4630463946FBF712F902460B46B9
:1073B00020462946FBF7FEF801F0DEFC07B0F0BDE1
:1073C000F0B587B01C46154600F008FB064606904F
:1073D0000F4605912846214600F000FB0446049024
:1073E0000D4603911E481F4900F0F8FA01F032FFE4
:1073F000029001913046394601F02CFF06460F46B7
:107400002046294601F026FF02460B463046394603
:10741000FBF7DEF802460B4602980199FBF740F9AC
:1074200004460D460698059902F036F806460F46C2
:107430000498039902F030F802460B46304639466C
:10744000FBF7C6F802460B4620462946FBF7B2F882
:1074500001F092FC0122D207514007B0F0BDC046B6
:107460005A643BDF4FB55640F0B583B002920C46EC
:107470000546032900DA6D1E6320C1432846FBF749
:107480002FFA0646192001012846FBF729FA301881
:10749000801CFBF7BFF90190009119482818FBF7F1
:1074A000B9F90027174B3A46FBF792F801F01EFF97
:1074B00005460E46032C00DA0C34601CFBF7AAF9D3
:1074C000114A124BFBF784F801F010FF2A463346AD
:1074D000FAF7CCFF04460D460298FBF79BF90246EB
:1074E0000B4620462946FAF7C1FF019A009BFAF79E
:1074F000BDFF074B3A46FAF7B9FF03B0F0BDC046EF
:107500006C12000000D4764061545227A0993E408E
:1075100000D297C080B50022044BFBF759F8012236
:10752000D207034BFAF7A2FF80BDC046A0D5E140C9
:107530002CB44241B0B50C460546154A154BFBF735
:1075400047F8154A154BFAF791FF2A462346FBF7F1
:107550003FF8134A134BFAF789FF2A462346FBF7F5
:1075600037F8114A114BFAF781FF0024104D2246DB
:107570002B46FBF795F80F4B2246FAF777FF22468A
:107580002B46FBF78DF80C4B2246FAF76FFFB0BD88
:10759000D61A4AED45B45D3FBEA4315A475543BFA4
:1075A000B81E85EB516847C0A69BC420B072354019
:1075B00000004E4000003A4000003740F0B581B076
:1075C0000C460546284A294BFBF702F8284A294B66
:1075D000FAF74CFF06460F4628462146FFF7AAFF5A
:1075E00004460D463046394600F0F8F901F032FE07
:1075F000054A064BFAF7ECFF02460B4620462946A1
:10760000FAF734FF01B0F0BDF168E388B5F8643FE4
:10761000F0B581B00C460546134A144BFAF7D8FF73
:10762000134A144BFAF722FF06460F462846214616
:1076300000F0CAF804460D463046394600F0CEF94F
:1076400001F0B8FE0C4A0D4BFAF7C2FF06460F4692
:107650000B4A0C4B20462946FAF708FF32463B46B8
:10766000FAF704FF01B0F0BD068195438B389EC048
:10767000C3F5285C8F425F40F94ECC7A319473BFDA
:107680001FBAA0BE654E77BFF0B581B00C46054667
:10769000FFF794FF06460F4628462146FFF7B8FF3E
:1076A00004460D463046394600F098F901F082FE56
:1076B00006460F462046294600F090F901F07AFE72
:1076C00002460B4630463946FAF782FF01F088FC45
:1076D00000F0E6F901B0F0BDF0B585B00C46054606
:1076E0002D4A2E4BFAF774FF2D4A2E4BFAF7BEFEA9
:1076F0002A462346FAF76CFF2B4A2C4BFAF7B6FEC4
:107700000490039128462146FFF798FD00F066F9A2
:1077100006460F4601F04EFE02460B4604980399BA
:10772000FAF756FF04900391214A224B284621463E
:10773000FAF74EFF204A214BFAF798FE029001918A
:107740003046394632463B46FAF790FE04460D462F
:1077500001F030FE02460B4602980199FAF738FF15
:1077600002460B4604980399FAF780FE04900391B1
:107770003046394622462B46FAF778FE01F01AFECB
:107780000F4A104BFAF724FF02460B460498039960
:10779000FAF76CFE05B0F0BDB75F3E59315CEDBE47
:1077A000AEF36F97FDBA73BFF6B2EDB435A2FE3FEC
:1077B000E31A9FC9FE791ABF958098840B79943F8C
:1077C0002C616D8C9DF0323FF0B581B00C460546C2
:1077D000FFF754FD06460F4628462146FFF77CFF7B
:1077E00002460B4630463946FAF740FE01B0F0BD7E
:1077F000F0B589B01F4608931646079200F0DEF8F0
:10780000054604900C460391FFF73EFC0190009161
:1078100028462146FFF738FF02460B4630463946D8
:10782000FFF782FD00F03CF902460B460E980690E9
:107830000F990591FAF7BEFE00245D4B2246FAF738
:10784000C7FE5C4B22460294FAF710FE019A009B99
:10785000FAF7B0FE07460D4604980399FFF75AFE63
:1078600004900E46544B384629462246FAF718FF34
:1078700002460B4604983146FAF7F8FD00F09EF8F0
:1078800006460F46FFF700FC04460D4630463946D3
:10789000FFF7FAFE02460B4607980899FFF744FDEA
:1078A00000F0FEF802460B4606980599FAF782FEAC
:1078B000029E32463E4BFAF78BFE32463D4BFAF7BC
:1078C000D5FD22462B46FAF775FE09B0F0BDC0463D
:1078D000F0B589B01F4608931646079200F06EF87F
:1078E000054604900C460391FFF7CEFB01900091F2
:1078F00028462146FFF7C8FE02460B463046394669
:10790000FFF75EFD00F0CCF802460B460E9806909D
:107910000F990591FAF74EFE0024254B2246FAF7FF
:1079200057FE244B22460294FAF7A0FD019A009BD1
:10793000FAF740FE07460D4604980399FFF7EAFD63
:1079400004900E461C4B384629462246FAF7A8FEFC
:1079500002460B4604983146FAF788FD00F02EF8EF
:1079600006460F46FFF790FB04460D463046394663
:10797000FFF78AFE02460B4607980899FFF720FD9D
:1079800000F08EF802460B4606980599FAF712FEAB
:10799000029E3246064BFAF71BFE3246054BFAF7BB
:1079A00065FD22462B46FAF705FE09B0F0BDC0463C
:1079B00000001040008086400080964080B5012283
:1079C000D207044BFAF752FD0022034BFAF768FE88
:1079D00080BDC0462CB442C1A0D5E14080B5364A36
:1079E000364BFAF7F5FD0022324BFAF759FE80BD0F
:1079F000FDF712F9FEF79AFAFEF72EFAFEF7B0FA43
:107A0000FEF778FAFEF724FAFEF75EFA0A20FCF792
:107A1000A5F8EFE7F0B581B04768002F21D06424C6
:107A20007C43056828462146FAF75AFF44432E1B3B
:107A3000FAF7F0FE00900D463046FAF7EBFE0646E8
:107A40000C463C207843FAF7E5FE02460B463046EA
:107A50002146FAF725FE009A2B46FAF707FD01B0FA
:107A6000F0BD0020014601B0F0BD000070B50B482C
:107A7000C469002C0ED08069FAF7CCFE05460E468C
:107A80002046FAF7C7FE02460B4628463146FAF76B
:107A900007FE70BD0020014670BDC04634060020C0
:107AA00080B50022034BFAF793FD034A034BFAF724
:107AB000F7FD80BD00806640182D4454FB2109402D
:107AC000B0B582B068460221FCF7F8FA0025EC4315
:107AD000002816D40098410601D42C4611E00A492A
