:020000040000FA
:1000000058040020090400002F0400008D0F000098
:1000100000000000000000000000000000000000E0
:100020000000000000000000000000003304000099
:100030000000000000000000350400001512000060
:1000400039040000390400003904000039040000BC
:1000500039040000390400003904000039040000AC
:10006000390400003904000039040000390400009C
:10007000390400003904000039040000390400008C
:10008000390400003904000039040000390400007C
:10009000390400003904000039040000390400006C
:1000A000390400003904000039040000390400005C
:1000B000390400003904000039040000390400004C
:1000C0000348854600F0EEF900480047BD130000E4
:1000D0005804002080B592B00C900B910A92002039
:1000E0000690BC4908600CA800784007002806D09C
:1000F000FFE7B8490120C04308600D9066E1002089
:100100000890B549272008600C98B4490860069803
:1001100010300690FFE700200490012007900B9913
:10012000089A92008958AE4A11600B9A0899890082
:1001300089184968AB4A11600B9A08998900891897
:100140008968A94A11600B9A089989008918C968B9
:10015000A64A1160A64908600898001D08900898F2
:100160000990FFE709983F2800D9CCE001200E90C4
:100170000E9880F310889F4800680A2100F072F9F9
:1001800080080590FFE79C480068C007002813D14D
:10019000FFE700200F900F9981F3108897490A68B4
:1001A0000F218A438D490A6009680C9A891A8908C7
:1001B0000891C0430490FFE7FFE70598411E0591B1
:1001C0000020002903900ED0FFE78B480168002033
:1001D0008906890F0029039005D0FFE70498414262
:1001E00048410390FFE70398C0070028CBD1FFE701
:1001F0000598002806D1FFE776490020C043086033
:100200000D90E3E00498002873D1FFE706980830CA
:1002100006900B98099989004058714908600B991C
:1002200009988000401840686E490860D34800680B
:100230000A2100F017F980080590FFE76E48006872
:10024000C007002813D1FFE700201090109981F318
:1002500010886A490A680F218A4360490A60096860
:100260000C9A891A89080891C0430490FFE7FFE7B8
:100270000598411E05910020002902900ED0FFE74D
:100280005D48016800200906890F0029029005D009
:10029000FFE70498414248410290FFE70298C007F7
:1002A0000028CBD1FFE70598002806D1FFE7494990
:1002B0000020C04308600D9088E00498002817D102
:1002C000FFE70698083006900B99099880004018BF
:1002D0008068454908600B99099880004018C068FB
:1002E0004249086000201190119880F31088FFE7C0
:1002F000FFE70498002801D5FFE704E0FFE709982D
:10030000001D09902EE70498002829D1FFE700205E
:1003100007909A4800680A2100F0A4F88008059028
:10032000FFE70598411E059100200029019006D0A5
:10033000FFE733480068012108400190FFE701987A
:10034000C007002801D0FFE7EBE70598002806D199
:10035000FFE720490020C04308600D9036E0FFE72A
:10036000FFE70798002800D0D5E626490868012253
:10037000520210430860814800680A2100F072F8B8
:1003800080080590FFE70598411E0591002000298F
:10039000009008D0FFE71B4800680121490208408F
:1003A000400A0090FFE70098C007002801D0FFE74F
:1003B000E9E70598002806D1FFE706490020C04379
:1003C00008600D9002E006980D90FFE70D9812B0BE
:1003D00080BDC046480200200CC0004004C0004060
:1003E00080C0004084C0004088C000408CC00040F5
:1003F00010C0004008000020C0C00040C4C0004041
:1004000040C0004018C000400C480D4901600D4933
:1004100001600D4901600D4A0D4911600D4A0E49F8
:100420001160002101600D4880470D480047FEE73C
:10043000FEE7FEE7FEE7FEE7FEE700000001004002
:100440005900000016000000880000002400004051
:10045000A55A000080020040010000009D1200002B
:10046000C100000070B50446002903D000202022FE
:10047000012310E0002801D00020C043C046C04640
:100480000DE02546D5408D4205D30D469540641BB1
:100490001D46954040191546521E002DF1DC21469F
:1004A00070BD0000064C0125064E05E0E36807CC50
:1004B0002B430C3C98471034B442F7D3FFF704FEAB
:1004C000DC140000FC14000084B003900B48816829
:1004D0000291416801910068009003981F22014633
:1004E000114001238B40800F810068464158044A27
:1004F00088581843885004B07047C04690140000D4
:100500000402004082B0019000911149002008606F
:100510000198042806D1FFE70D490868042210431A
:10052000086007E08649086838229043019A104322
:100530000860FFE700980749086007490020086045
:100540000349086803221043086002B07047C046A0
:1005500010E000E014E000E018E000E081B000905E
:10056000009A484908681043086001B07047C046C7
:1005700080B500F053FEDC48006880BD0800002014
:1005800080B588B02248029000200790214800687A
:10059000019001A880780521084235D1FFE701A824
:1005A00080780007002803D5FFE71C48069002E08A
:1005B00019480690FFE701A880788007002803D536
:1005C000FFE7069807901EE001A80088810B02A8AB
:1005D000401800780390019811490840801C05904C
:1005E00001981F2149020840400A801C0490069887
:1005F000810805984843049A03995143FFF732FF55
:1006000080000790FFE7FFE7079808B080BDC0466D
:1006100001020204400200400048E801001BB7004C
:10062000FF01000010B584B0039002915B4801689F
:10063000102001400191134A1168042319431160ED
:1006400000F080F83E4908680722104308603B4BE1
:1006500018680F24A043029C204318600868904348
:10066000039A1043086000F0D9FD0198002806D1D4
:10067000FFE704490868042290430860FFE704B0DC
:1006800010BDC046000200408DB00C900B910A9244
:100690000020099008902748C16807918168069159
:1006A00041680591006804902348C16803918168FE
:1006B000029141680191006800900C98800A000640
:1006C000002817D0FFE70CA841880C20014068469D
:1006D00040581A4940180890089800680C9A910AE6
:1006E000C9B29205D20E914088430A9908430899ED
:1006F0000860FFE70C980001400F002817D0FFE7C3
:100700000C98810E0C20014004A840580C49401858
:100710000990099800680C9A1101490FD201D20E74
:10072000914088430B99084309990860FFE70DB091
:100730007047C0469C140000AC140000200200402A
:100740001002004083B00290B24800684008019057
:1007500001200090104900200860FFE70F48006862
:100760000299084088420AD0FFE70198401E019094
:10077000002803D1FFE70020009000E0EEE7019899
:10078000002805D1FFE704490020C0430860FFE7C7
:10079000009803B07047C046440200205002004059
:1007A00081B00090009805490860FFE703480068A1
:1007B000002801D0FFE7F9E701B0704738020020B8
:1007C00080B584B00390029103980190FFE70198EF
:1007D0000399029A8918884211D2FFE7019800F024
:1007E0002DF8002804D5FFE70A20FFF7D9FF22E003
:1007F000FFE701980121490240180190E7E70398BB
:100800000190FFE701980399029A8918884212D251
:10081000FFE7019800F0C2F800900098401C002803
:1008200004D0FFE70A20FFF7BBFF04E0FFE70198D1
:10083000001D0190E6E704B080BD000080B584B0E3
:100840000290B349002008600298012149058842BE
:1008500004D1FFE700F04AF8039042E0AD492220BE
:1008600008600298AC490860AC4901200860A748BC
:1008700000680A21FFF7F6FD40080190FFE70198A4
:10088000411E019100200029009006D0FFE7E748B3
:100890000068012108400090FFE70098C007002889
:1008A00001D0FFE7EBE70198002806D1FFE7DB491D
:1008B0000020C0430860039013E0374800684006FA
:1008C00000280BD5FFE73449086840221043086030
:1008D000D2490020C0430860039002E0002003904A
:1008E000FFE7039804B080BD0800002080B584B005
:1008F000CA4900200860CA49222008600120410539
:10090000C84A1160C84A20491160C8490860C848EF
:1009100000680A21FFF7A6FD40080290FFE7029851
:10092000411E029100200029019006D0FFE7BF4838
:100930000068012108400190FFE70198C0070028E6
:1009400001D0FFE7EBE70298002806D1FFE7B349A3
:100950000020C0430860039013E00F480068400681
:1009600000280BD5FFE70C490868402210430860B7
:10097000AA490020C0430860039002E000200390D1
:10098000FFE7039804B080BD03AA5500F549086845
:10099000012210430860704700C0004080B584B059
:1009A0000290F349002008609D49086002989D4923
:1009B00008609E49012008609D4800680A21FFF7F1
:1009C00051FD80080190FFE70198411E0191002030
:1009D0000029009006D0FFE79448006801210840F4
:1009E0000090FFE70098C007002801D0FFE7EBE781
:1009F0000198002806D1FFE7DD490020C0430860C8
:100A0000039003E0884800680390FFE7039804B070
:100A100080BDC0460800002080B584B002900191DE
:100A20000020009003200005FFF7B8FF029908603E
:100A3000CF480068002804D0FFE7CD480068039045
:100A400031E00198042804D3FFE70120C04300905F
:100A500026E0019802280FD3FFE7C348FFF79EFF67
:100A600002994860C2480068002804D0FFE7C048E7
:100A70000068039017E0FFE7019803280FD3FFE712
:100A8000BA48FFF78BFF02998860B94800680028D0
:100A900004D0FFE7B6480068039004E0FFE7FFE7F3
:100AA00000980390FFE7039804B080BD80B584B040
:100AB00002905F4800680A21FFF7D4FC800801908B
:100AC000AB490020086056492E200860029855491D
:100AD0000860564901200860FFE70198411E019116
:100AE000002809D0FFE751480068002803D1FFE73C
:100AF0000020039006E0F0E79D490020C043086015
:100B00000390FFE7039804B080BDC04608000020B2
:100B1000480200200CC0004004C0004010C000404B
:100B200080B586B0049003919149002008603C494B
:100B30002120086004983B49086003983A490860FE
:100B40003A49012008603A4800680A21FFF78AFC08
:100B500080080290FFE70298411E029100200029C0
:100B6000019006D0FFE7314800680121084001905C
:100B7000FFE70198C007002801D0FFE7EBE70298E4
:100B8000002806D1FFE77A490020C043086005909D
:100B900041E028480068400600280BD5FFE72549BA
:100BA000086840221043086071490020C043086073
:100BB000059030E020490868012252021043086085
:100BC0001B4800680A21FFF74DFC80080290FFE7F0
:100BD0000298411E029100200029009008D0FFE7F2
:100BE00015480068012149020840400A0090FFE7CB
:100BF0000098C007002801D0FFE7E9E70298002825
:100C000006D1FFE75A490020C0430860059002E082
:100C100000200590FFE7059806B080BD480200203F
:100C20000CC0004004C0004008C0004010C000409C
:100C30000800002040C0004018C0004080B584B0CB
:100C400002900191C84908681022104308600320EF
:100C50000005FFF7F3FD002804D0FFE70020C043A4
:100C600003907BE003200005FFF798FE401C00285E
:100C70000ED1FFE73C48FFF791FE401C002807D14A
:100C8000FFE73A48FFF78AFEA630002809D0FFE7C1
:100C9000F04908681022904308600020C043039088
:100CA0005CE033480068002809D0FFE7E94908689C
:100CB0001022904308600020C04303904EE00020C3
:100CC0000090FFE70098019988423FD2FFE7009823
:100CD000820003200005101802998958FFF720FFB1
:100CE000002809D0FFE7DB4908681022904308601C
:100CF0000020C043039031E00098800003210905E3
:100D00004018FFF74BFE0299009A920089588842DA
:100D100009D0FFE7CF4908681022904308600020FF
:100D2000C04303901AE012480068002809D0FFE78A
:100D3000C84908681022904308600020C04303900F
:100D40000CE0FFE70098401C0090BBE7C149086831
:100D500010229043086000200390FFE7039804B03E
:100D600080BDC04600C000400400300008003000D4
:100D70004802002010B588B0B248818976480180C9
:100D80000088002806D0FFE773480088734988422E
:100D900001DBFFE7DEE070480188490A704A1180F4
:100DA000008870490870AB49086808221043086041
:100DB0006E4900200880FFE76C4800886649098872
:100DC000884253DAFFE76A480790052189030160EA
:100DD000664906910A8801688918016001686548BA
:100DE00001220592520200F055F9059A06990798DA
:100DF000520302600A880168891801600068FFF7E1
:100E00001DFD5D4900200880FFE75B4800885B49C5
:100E1000884223DCFFE75848028856498B18D87867
:100E200000069C78240400195B781B02C018895CBA
:100E3000401853490860534A002010704C480490F1
:100E400000680968FFF76CFE04990868001D0860D7
:100E5000FFE749490888001D0880D6E7FFE74349B6
:100E600008880122520280180880A5E73F49002027
:100E70000880FFE73D4800883749098888425CDAE6
:100E8000FFE73B4803900521890301603749029140
:100E90000A880168891801600168364801220192B8
:100EA000520200F0F7F8019A0298039952030A607F
:100EB00002880868801808602F4900200880FFE732
:100EC0002D4800882D4988422FDCFFE72A480288F8
:100ED00028498B18D87800069C78240400195B7880
:100EE0001B02C018895C40182549009108602549FB
:100EF000002008701E480068FFF750FD0099024668
:100F00002148026000680968884204D0FFE7012098
:100F1000FFF746FCFFE716490868001D0860FFE779
:100F200015490888001D0880CAE7FFE70F490888AF
:100F300001225202801808809CE74649086808226E
:100F4000904308603F49002008818889C880AA2012
:100F5000C881FFE708B010BD1400002061EA00005E
:100F60002E0200203002002000C000402A00002095
:100F7000100000202C0000203C020020FF01000097
:100F8000500200204C0200203402002080B500F006
:100F900073F880BD80B582B00A49002001900870C6
:100FA00000F026F900F0CAF80198C04300F054F8A8
:100FB0000220FFF789FAFFF7E9FC00F02BFA02B0F4
:100FC00080BDC0462C02002080B586B005A8122145
:100FD000018002881B4804901B4900F05BF80498CC
:100FE000008A1A49884204D0FFE716491748088248
:100FF0000BE014481521C18100891549884203D1AD
:10100000FFE7FFF7B7FEFFE7FFE705A80090122113
:101010000180104A03921168202302931943116042
:10102000018809480190FFF7CBFB009801990288DD
:10103000044800F063F9029A039908689043086035
:1010400006B080BD16000020000410003A5A0000CF
:10105000A3A5000000C0004081B0014668460170B1
:1010600001781F200140012088400249086001B03A
:101070007047C04600E100E0BFF34F8F03490448CA
:101080000860BFF34F8FFFE700BFFDE70CED00E006
:101090000400FA0580B586B0059004910392049887
:1010A0000290FFE702980499039A8918884242D275
:1010B000FFE70298FFF772FC019001A8C07805993C
:1010C000029A049BD21A885402980499401A401C30
:1010D0000399884209D2FFE701A84088059A02993E
:1010E000049BC91A89184870FFE702980499401AAE
:1010F000801C0399884209D2FFE70198000A059AEB
:101100000299049BC91A89188870FFE7029804990C
:10111000401AC01C0399884208D2FFE70198059A3B
:101120000299049BC91A8918C870FFE7FFE7029863
:10113000001D0290B6E706B080BD000080B584B007
:1011400004200390FFF70AFA1020FFF7FBFA0720AC
:1011500000210291FFF766FA10480190FFF7B4F9F9
:101160000198029A03210906FFF78EFA00F056F85B
:101170000B490868FF22120490433322520480185E
:101180000860FFF7F5F97D21C900FFF76BF901460B
:101190000398FFF7B7F904B080BDC046103D805FEB
:1011A0003C0000401A4900200860704718490020A0
:1011B00008607047054908680222104308607047BC
:1011C0000249086801221043086070470800004087
:1011D000FFE70F4959200860162008608820086042
:1011E000FFE70B4800680028F3D0FFE77047C046D0
:1011F000FFE707495920086016200860882008602A
:10120000FFE7034800680028F3D0FFE77047C046B7
:101210000001004080B500F053F880BD80B584B077
:1012200016480068072108400290FFF7A9F9144901
:1012300008600298022806D0FFE702988100114852
:101240004058039003E00E4800680390FFE70E4803
:1012500000680F210840401C019003980199FFF796
:1012600001F9014609480160006809494018094927
:10127000FFF7F8F80849086004B080BD100200408C
:1012800004000020BC1400002002004008000020E0
:1012900020A1070040420F000000002080B5FFF7AA
:1012A00097FF0649086807221205904308600868FE
:1012B00010430860FFF776FF80BDC0460002004083
:1012C0000C480068002805D0FFE70A490868401E5E
:1012D0000860FFE708480188491C01800088F52163
:1012E0008900884204DBFFE7034900200880FFE70C
:1012F0007047C046380200202800002080B586B024
:1013000005900491039204980290FFE702980499D3
:10131000039A8918884248D2FFE705980299049AEF
:10132000891A405C0006019002980499401A401CFA
:10133000039988420BD2FFE705990298049A801A14
:10134000401840780104019808430190FFE7029893
:101350000499401A801C039988420BD2FFE7059933
:101360000298049A801A4018807801020198084374
:101370000190FFE702980499401AC01C0399884223
:101380000AD2FFE705990298049A801A4018C1789A
:10139000019808430190FFE702980199FFF7C0FB0D
:1013A000FFE70298001D0290B0E706B080BD81B053
:1013B000009080F30888704701B0704780B584B012
:1013C00000200390FFF7E6FDFFF7FEFDFFE70A2090
:1013D000FFF7E6F972B60220FFF776F80120400326
:1013E0000190FFF763FBFFF7E5FEFFF7DFFE0198D3
:1013F00006490968064A029211600068FFF7D7FFA4
:10140000029800688047FFE7FEE7C046042000001E
:101410004002002080B584B001A80221FFF7FCFA49
:10142000002804D5FFE703A90020087019E001A8EF
:1014300000784006002810D5FFE70C490868102204
:1014400010430860019840218843019001A80221BF
:10145000FFF7F4FBFFF7B4FEFFE703A901200870D4
:10146000FFE703A8007804B080BDC04600C000407C
:1014700002E008C8121F08C1002AFAD1704770475D
:10148000002001E001C1121F002AFBD170470000BB
:101490000000000004000000080000000000000040
:1014A00004000000080000000C0000000000000024
:1014B0000000000000000000100000000048E801EB
:1014C0000080000000D8B80500960000006CDC0227
:1014D0000000000000000000006CDC0200150000AD
:1014E0000000002010000000701400001015000023
:1014F00010000020480400008014000000000000DC
:101500006000000000D8B80500D8B8050000000051
:0400000500000409EA
:00000001FF
