:020000040000FA
:10200000B00D0020092400002F240000E535000059
:1020100000000000000000000000000000000000C0
:102020000000000000000000000000003324000059
:102030000000000000000000352400009949000065
:10204000392400003924000039240000392400001C
:10205000392400003924000039240000392400000C
:1020600039240000392400003924000039240000FC
:10207000AD4A0000BD4B00003924000039240000A7
:1020800039240000392400003924000039240000DC
:1020900039240000392400003924000039240000CC
:1020A00039240000392400003924000039240000BC
:1020B00039240000392400003924000039240000AC
:1020C0000348854600F0E6FC00480047B55E000086
:1020D000B00D002080B592B00C900B910A920020B8
:1020E0000690BC4908600CA800784007002806D07C
:1020F000FFE7B8490120C04308600D9066E1002069
:102100000890B549272008600C98B44908600698E3
:1021100010300690FFE700200490012007900B99F3
:10212000089A92008958AE4A11600B9A0899890062
:1021300089184968AB4A11600B9A08998900891877
:102140008968A94A11600B9A089989008918C96899
:10215000A64A1160A64908600898001D08900898D2
:102160000990FFE709983F2800D9CCE001200E90A4
:102170000E9880F310889F4800680A2100F084FBC5
:1021800080080590FFE79C480068C007002813D12D
:10219000FFE700200F900F9981F3108897490A6894
:1021A0000F218A438D490A6009680C9A891A8908A7
:1021B0000891C0430490FFE7FFE70598411E059191
:1021C0000020002903900ED0FFE78B480168002013
:1021D0008906890F0029039005D0FFE70498414242
:1021E00048410390FFE70398C0070028CBD1FFE7E1
:1021F0000598002806D1FFE776490020C043086013
:102200000D90E3E00498002873D1FFE706980830AA
:1022100006900B98099989004058714908600B99FC
:1022200009988000401840686E490860714800684D
:102230000A2100F029FB80080590FFE76E4800683E
:10224000C007002813D1FFE700201090109981F3F8
:1022500010886A490A680F218A4360490A60096840
:102260000C9A891A89080891C0430490FFE7FFE798
:102270000598411E05910020002902900ED0FFE72D
:102280005D48016800200906890F0029029005D0E9
:10229000FFE70498414248410290FFE70298C007D7
:1022A0000028CBD1FFE70598002806D1FFE7494970
:1022B0000020C04308600D9088E00498002817D1E2
:1022C000FFE70698083006900B990998800040189F
:1022D0008068454908600B99099880004018C068DB
:1022E0004249086000201190119880F31088FFE7A0
:1022F000FFE70498002801D5FFE704E0FFE709980D
:10230000001D09902EE70498002829D1FFE700203E
:102310000790384800680A2100F0B6FA8008059056
:10232000FFE70598411E059100200029019006D085
:10233000FFE733480068012108400190FFE701985A
:10234000C007002801D0FFE7EBE70598002806D179
:10235000FFE720490020C04308600D9036E0FFE70A
:10236000FFE70798002800D0D5E626490868012233
:102370005202104308601F4800680A2100F084FAE6
:1023800080080590FFE70598411E0591002000296F
:10239000009008D0FFE71B4800680121490208406F
:1023A000400A0090FFE70098C007002801D0FFE72F
:1023B000E9E70598002806D1FFE706490020C04359
:1023C00008600D9002E006980D90FFE70D9812B09E
:1023D00080BDC046900300200CC0004004C00040F7
:1023E00080C0004084C0004088C000408CC00040D5
:1023F00010C000400C000020C0C00040C4C000401D
:1024000040C0004018C000400C480D4901600D4913
:1024100001600D4901600D4A0D4911600D4A0E49D8
:102420001160002101600D4880470D480047FEE71C
:10243000FEE7FEE7FEE7FEE7FEE7000000010040E2
:102440005900000016000000880000002400004031
:10245000A55A00008002004001000000214A00004F
:10246000C120000003460B439B0703D009E008C9C5
:10247000121F08C0042AFAD203E00B780370401C34
:10248000491C521EF9D27047D2B201E00270401CC2
:10249000491EFBD270470022F6E710B513460A46E4
:1024A00004461946FFF7F0FF204610BDF0B5074679
:1024B0000846584087B0C00F049048000E465900A7
:1024C00040084908BC1A884105D2384631461E46A4
:1024D00017460B4602465800400810434CD0300DBA
:1024E000039040055900400D490D0590401A029097
:1024F000402872DA18030121000B090508430190F6
:1025000004980092002805D0019952420020884189
:1025100000920190029840210A1A0199009800F057
:10252000FBF905460C466B4607CB00F016FAC019BE
:102530007141039A0E0D0023D71756401A467A4070
:10254000164344D0049A002A2DD0029A012A039AF5
:1025500015DC1205C01A914101263605001C714197
:10256000D20F059ED2070093019202962A46234677
:1025700000F013FA07B0F0BD38463146FAE7160509
:10258000224A0F46B218C01AB74101210905001CA2
:102590004F4100187F41114618187941E20F10434E
:1025A0006D19644113E0E2076D0815436408C20722
:1025B0001443039A01261205C01A91413605001CE6
:1025C0007141CE07400830434908C01851412A469E
:1025D000234600F0D5F9CDE7FFE70498012240003B
:1025E000C117121A00238B4104983146C417381AB8
:1025F000A141EEE730B40124E407634030BC55E765
:1026000030B40124E407614030BC4FE70000E0FF34
:10261000F0B51FB488B00B99099800244840099977
:10262000C00F490049080991C0070B990090490063
:1026300049080B9109990898A64608431CD00B99A4
:102640000A98084318D0099801244000420D480018
:10265000410D099824050003000B204309900B98B5
:102660000003000B20430B9050181C494018002217
:1026700001901446104605E0002001460DB0F0BD63
:10268000032801DA034600E003239C46C11A0AAE80
:102690000AE05F0008ADED5B4F00F75B7D4300276C
:1026A000AA187C41491C5B1E6145F2DD410004AB68
:1026B0005A522104120C0A43240C401C0828DFDB68
:1026C000019802900099704601910090059B049A30
:1026D0000799069800F061F9D0E700000DFCFFFFB4
:1026E000F0B50C465C4085B0E40FE40703944C0061
:1026F000002664085900944649080246029622437F
:1027000021D062460A431ED06200570D4A000E03D4
:102710002303550D012402462C492405781B1B0B6D
:10272000360B401823432643614600901C46501A3E
:10273000B44103D30098401C009002E09218009826
:102740005B41002803DA0020014605B0F0BD0020FF
:10275000012109050746864611E064461D46141B03
:10276000B54106D36546521BB341744607430C433B
:10277000A646CD0740084908284392185B41054604
:102780000D43EAD11046184313D060461946504015
:102790007140084306D06046101AB34106D20122A8
:1027A000002306E000220123DB0702E00122D243DE
:1027B0005310009874460105381C6141029C039D2A
:1027C0000019694100F0DCF8BFE70000FD030000DC
:1027D00010B5002904DB0C460121C9074042A14184
:1027E000002B04DB1C460123DB075242A341101AD5
:1027F0008B4101D3012010BD002010BD0EB5C217C2
:10280000C10F5040CA0740180021054B02930192A6
:1028100000910A460B4600F0C0F803B000BD00006E
:10282000330400000EB505490291002100910A46CB
:102830000B46019100F0B1F803B000BD3304000075
:1028400070B5CD0F4A0009030123090B1B0519437D
:102850000B4BED070024520D9A4201DA002070BDA7
:10286000074B34339A4203DC9A1A00F065F802E011
:102870000449511888402C43F1D0404270BD0000FB
:10288000FF030000CDFBFFFF70B50446002903D015
:1028900000202022012310E0002801D00020C043A6
:1028A000C046C0460DE02546D5408D4205D30D46B5
:1028B0009540641B1D46954040191546521E002D3B
:1028C000F1DC214670BD000070B5002504462E469F
:1028D000002911D0002C01DA01254442002901DA37
:1028E000012649422046FFF7CFFFB54200D04042C3
:1028F000002D00D0494270BD002C02DA0121C90729
:1029000002E0002C00DD03490846C046C0462146CF
:1029100070BD0000FFFFFF7F10B5202A04DB0146D9
:10292000203A9140002010BD914020239C1A03467C
:10293000E3401943904010BD10B5202A04DB08463F
:10294000203AD040002110BD0B46D340D040202477
:10295000A21A91400843194610BD10B5202A06DB83
:10296000CB170846203A1041C1170B4306E00B462F
:102970001341D0402024A21A91400843194610BDAB
:1029800010B5002B08DA0024401C614192185B410D
:102990001A4301D14008400010BDF0B51FB482B009
:1029A00005460C0003D0084603F0AAFA02E003F043
:1029B000A7FA20300246009021462846FFF7ACFFD8
:1029C000049B059A04460F4618431143084314D04C
:1029D000184610431BD0009840210A1A1846059942
:1029E000FFF7AAFF05460E46009A05990498FFF7DF
:1029F00093FF084305D0012004E02046394607B084
:102A0000F0BD0020C11705430E432C433743009906
:102A10000E986305401A7905E40A00220C43FD0A6A
:102A20000A3002D500200146E9E701051019694185
:102A30000C9C0D9D00196941FFF7A2FFDFE770B5FF
:102A40004B005B0803430BD04B005C0D0026334664
:102A50006542B341D417AD1AA34102DB0020014601
:102A600070BD12053018514170BD000010B500292D
:102A700004DB0124E40740428C412146002B04DBA7
:102A80001C460123DB075242A341994200D19042E8
:102A900010BD0000064C0125064E05E0E36807CC9A
:102AA0002B430C3C98471034B442F7D3FFF70CFB90
:102AB000A4720000C4720000FEB500231A461B1A5F
:102AC0008A4103DB0020014603B0F0BD4A000D033C
:102AD00001212D0B0905520D0D43D10702D100181C
:102AE0006D41521E5110FF31FF3101310027044664
:102AF0003E46384600970191024601210020090513
:102B0000FFF71AFFC3197141F818324684468E4602
:102B10004A4161462846611A904104D36046241A0E
:102B2000954176461F46241900986D41401C00903F
:102B30003428E1DDF91930467041091BA84103D260
:102B40000022D243134601E00022134601980105FA
:102B5000381C7141FFF714FFB6E781B001466846A3
:102B6000017001780A090A2050430F2211404018D1
:102B7000C0B201B07047000080B5E5480068072189
:102B8000084002280ED1FFE7B2490868042210432A
:102B90000860102000F0BEF9DD49086807221043E4
:102BA0000860FFE78F49086801221204104308609B
:102BB00080BDC04681B00090009AA6490868904345
:102BC000086001B07047C04684B003900B4881682C
:102BD0000291416801910068009003981F2201460C
:102BE000114001238B40800F810068464158044A00
:102BF00088581843885004B07047C04628720000B7
:102C00000402004082B00190009111490020086048
:102C10000198042806D1FFE70D49086804221043F3
:102C2000086007E0BA49086838229043019A1043C7
:102C30000860FFE70098074908600749002008601E
:102C40000349086803221043086002B07047C04679
:102C500010E000E014E000E018E000E081B0009037
:102C6000009A7C4908681043086001B07047C0466C
:102C700080B501F095FEBC48006880BD80B582B08B
:102C800001F08EFE0D480068072108400190B6480B
:102C900000680199C84002B080BDC04680B582B0CE
:102CA00001F07EFE0548006870210840000901908F
:102CB000AD4800680199C84002B080BD34020040B0
:102CC00080B588B0464802900020079045480068CB
:102CD000019001A880780521084235D1FFE701A8BD
:102CE00080780007002803D5FFE74048069002E0FF
:102CF0003D480690FFE701A880788007002803D5AB
:102D0000FFE7069807901EE001A80088810B02A843
:102D1000401800780390019835490840801C0590C0
:102D200001981F2149020840400A801C049006981F
:102D3000810805984843049A03995143FFF7A4FD7D
:102D400080000790FFE7FFE7079808B080BDC04606
:102D500080B588B022480290002007902148006882
:102D6000019001A880780521084235D1FFE701A82C
:102D700080780007002803D5FFE71C48069002E092
:102D800019480690FFE701A880788007002803D53E
:102D9000FFE7069807901EE001A80088810B02A8B3
:102DA000401800780390019811490840801C059054
:102DB00001981F2149020840400A801C049006988F
:102DC000810805984843049A03995143FFF75CFD35
:102DD00080000790FFE7FFE7079808B080BDC04676
:102DE00001020204400200400048E801001BB70055
:102DF000FF01000010B584B0039002915C480168A7
:102E0000102001400191134A1168042319431160F5
:102E100000F080F83E4908680722104308603B4BE9
:102E200018680F24A043029C204318600868904350
:102E3000039A1043086001F0B3FD0198002806D101
:102E4000FFE704490868042290430860FFE704B0E4
:102E500010BDC046000200408DB00C900B910A924C
:102E60000020099008902748C16807918168069161
:102E700041680591006804902348C1680391816806
:102E8000029141680191006800900C98800A000648
:102E9000002817D0FFE70CA841880C2001406846A5
:102EA00040581A4940180890089800680C9A910AEE
:102EB000C9B29205D20E914088430A9908430899F5
:102EC0000860FFE70C980001400F002817D0FFE7CB
:102ED0000C98810E0C20014004A840580C49401861
:102EE0000990099800680C9A1101490FD201D20E7D
:102EF000914088430B99084309990860FFE70DB09A
:102F00007047C046647200007472000020020040E6
:102F10001002004083B002901348006840080190FE
:102F200001200090114900200860FFE71048006868
:102F30000299084088420AD0FFE70198401E01909C
:102F4000002803D1FFE70020009000E0EEE70198A1
:102F5000002805D1FFE705490020C0430860FFE7CE
:102F6000009803B07047C0460C0000208C0300207E
:102F70005002004080B582B001F09CFF08483E211D
:102F8000405C002804D0FFE701A90120087003E09D
:102F900001A900200870FFE701A8007802B080BDF9
:102FA000BC02002080B582B086486821002200F073
:102FB0004FFB6946087009480068401C002804D18E
:102FC000FFE701A90020087003E001A901200870B3
:102FD000FFE701A8007802B080BDC046940300203E
:102FE00080B503484B218900FFF755FA80BDC046E4
:102FF0006400002080B503484B218900FFF74BFA9D
:1030000080BDC0469001002080B582B0014601A875
:10301000017000780A21FFF737FC00010843C0B2B5
:1030200002B080BD80B582B066480190054900F0CD
:10303000DDFA019868220023194600F0F3FD02B082
:1030400080BDC046A086010010B58AB0099008A8CE
:103050000021017006AB0593997199800691027861
:103060000720039000905748682100F05FFC059806
:1030700000787F2102910840FFF76FFD0299024618
:103080000598099BDA7140780840FFF766FD014614
:103090000598099A917180783F2104910840FFF7C3
:1030A0005CFD039B049902460598099C6271C278F5
:1030B0001A40099B1A7100790840FFF74EFD01463E
:1030C0000598099AD17040791F210840FFF745FD06
:1030D00001460598099A91708079FFF73EFD09999C
:1030E000088001200AB010BD80B5FFF79BFF0020CB
:1030F00000F002F880BD0000B0B586B0014605A81A
:1031000001700078411E8841C00104A90091087037
:103110002C480390682101910022029200F098FA55
:10312000009B0199029A044603987F252C40054D87
:103130002C70049C2D782C431C701B7800F0AAFD89
:1031400006B0B0BD4003002080B588B0079006A946
:103150000391002008700798C079FFF755FF04A974
:103160000291087007988079FFF74EFF0299487026
:1031700007984079FFF748FF02998870079800790F
:10318000FFF742FF0299C8700798C078FFF73CFF2D
:103190000299087107988078FFF736FF0299487105
:1031A00007980078FFF730FF029B0146039899715A
:1031B0000278072000900348682100F083FE012078
:1031C00008B080BD0000084081B00090009805491B
:1031D0000860FFE703480068002801D0FFE7F9E72F
:1031E00001B070478403002080B500F001F880BD75
:1031F00080B582B0084801F05DFB4B2041010748D3
:10320000019001F01DFD0D2001F00AF90198012146
:1032100001F00CFD02B080BD110000040010074059
:1032200080B584B00390029103980190FFE7019864
:103230000399029A8918884211D2FFE7019800F099
:1032400033F8002804D5FFE70A20FFF7BDFF22E08E
:10325000FFE701980121490240180190E7E7039830
:103260000190FFE701980399029A8918884212D2C7
:10327000FFE7019800F0C6F800900098401C002875
:1032800004D0FFE70A20FFF79FFF04E0FFE7019863
:10329000001D0190E6E704B080BD000058490868B1
:1032A000012290430860704780B584B00290B24913
:1032B00000200860029801214905884204D1FFE7F7
:1032C00000F048F8039042E0AC49222008600298E0
:1032D000AB490860AC4901200860AC4800680A218D
:1032E000FFF7D2FA40080190FFE70198411E0191D3
:1032F00000200029009006D0FFE7A34800680121C4
:1033000008400090FFE70098C007002801D0FFE7C1
:10331000EBE70198002806D1FFE797490020C0435A
:103320000860039013E036480068400600280BD57B
:10333000FFE7334908684022104308608E490020A7
:10334000C0430860039002E000200390FFE7039869
:1033500004B080BD80B584B08749002008608749EB
:103360002220086001204105854A1160854A2049D4
:10337000116085490860854800680A21FFF784FAD2
:1033800040080290FFE70298411E029100200029A8
:10339000019006D0FFE77C480068012108400190B9
:1033A000FFE70198C007002801D0FFE7EBE702988C
:1033B000002806D1FFE770490020C0430860039051
:1033C00013E00F480068400600280BD5FFE70C49C2
:1033D000086840221043086067490020C043086025
:1033E000039002E000200390FFE7039804B080BD43
:1033F00003AA55000249086801221043086070477B
:1034000000C0004080B584B002905B490020086095
:103410005A49086002985A4908605B4901200860CF
:103420005A4800680A21FFF72FFA80080190FFE749
:103430000198411E019100200029009006D0FFE76D
:1034400051480068012108400090FFE70098C0073C
:10345000002801D0FFE7EBE70198002806D1FFE73D
:1034600045490020C0430860039003E045480068D8
:103470000390FFE7039804B080BDC04680B586B0D6
:10348000049003913C49002008603C4921200860D9
:1034900004983B49086003983A4908603A4901207A
:1034A00008603A4800680A21FFF7EEF980080290A8
:1034B000FFE70298411E029100200029019006D0EA
:1034C000FFE731480068012108400190FFE70198BB
:1034D000C007002801D0FFE7EBE70298002806D1DB
:1034E000FFE725490020C0430860059041E02848D7
:1034F0000068400600280BD5FFE7254908684022F0
:10350000104308601C490020C0430860059030E06B
:103510002049086801225202104308601B480068D5
:103520000A21FFF7B1F980080290FFE70298411ED7
:10353000029100200029009008D0FFE7154800689C
:10354000012149020840400A0090FFE70098C007A7
:10355000002801D0FFE7E9E70298002806D1FFE73D
:1035600005490020C0430860059002E00020059056
:10357000FFE7059806B080BD900300200CC0004016
:1035800004C0004008C0004010C000400C000020F3
:1035900040C0004018C0004084B0039002910192E6
:1035A00000200090FFE700980F2819D8FFE7029845
:1035B0000099C840C00700280DD0FFE703980068B5
:1035C00000994A00032191408843019991400843A2
:1035D00003990860FFE7FFE70098401C0090E2E7CE
:1035E00004B0704780B500F039FF80BD80B586B06B
:1035F0000590049105981549884204D1FFE7FFF72B
:103600004DFB029003E0FFF739FB0290FFE70299C0
:103610000A200190484304998900FFF735F9019980
:10362000401DFFF731F9401E03900398059908618A
:1036300005990868402210430860029803998900A0
:10364000091DFFF721F906B080BDC04600100840F3
:103650008AB0099008A8017007A8027006A9012085
:10366000087005A90020087004A9087003A9087053
:10367000AC49086009980068282108430999086046
:10368000FFE706A8017800200029019006D0FFE797
:1036900005A80078414248410190FFE70198C00722
:1036A000002800D117E1A04800680290FFE70998C0
:1036B0000068000700280DD4FFE70298401E029022
:1036C0000298002805D1FFE796490020C043086012
:1036D00000E0ECE70998C06808380090502800D94D
:1036E000E0E00098810001A0405887463138000092
:1036F000A5380000A5380000A5380000A538000056
:10370000A5380000A5380000A53800006338000087
:10371000A5380000A5380000A5380000A538000035
:10372000A5380000A5380000A53800004338000087
:10373000A5380000A5380000A5380000A538000015
:10374000A5380000A5380000A53800004D3800005D
:10375000A5380000A5380000A5380000A5380000F5
:10376000A5380000A5380000A53800005B3800002F
:10377000A5380000A5380000A5380000A5380000D5
:10378000A5380000A5380000A53800004D3800001D
:10379000A5380000A5380000A5380000A5380000B5
:1037A000A5380000A5380000A5380000A3380000A7
:1037B000A5380000A5380000A5380000A538000095
:1037C000A5380000A5380000A538000077380000B3
:1037D000A5380000A5380000A5380000A538000075
:1037E000A5380000A5380000A53800007F3800008B
:1037F000A5380000A5380000A5380000A538000055
:10380000A5380000A5380000A5380000A538000044
:10381000A5380000A5380000A5380000A538000034
:10382000A5380000A5380000A53800008D3800003C
:1038300008984006000E0999886003A908200870BE
:103840003FE007A80078099988603AE003A91820AA
:10385000087005A90120087033E003A9282008702A
:103860002FE008984000401CC0B20999886003A965
:103870000820087025E003A90820087021E003A9AA
:103880001820087005A9012008701AE009988068BE
:1038900004A9087003A91820087006A90020087060
:1038A0000FE0FFE7099800681821084324218843A6
:1038B0000999086003A90820087005A9012008706B
:1038C000FFE7099800683C21884303A90978084369
:1038D00009990860D5E6D24800680290FFE7099888
:1038E0000068C00600280DD5FFE70298401E029030
:1038F0000298002805D1FFE7C8490020C0430860AE
:1039000000E0ECE705A80078002807D0FFE704A94D
:1039100000200870C149C0430860FFE704A8007890
:103920000AB07047940300200C00002010B58BB043
:103930000D9C0A9009A8017008A80270079306A9B7
:103940000120087005A90020087004A908700390E0
:10395000B24908600A980068282108430A9908605B
:10396000FFE706A8017800200029019006D0FFE7B4
:1039700005A80078414248410190FFE70198C0073F
:10398000002800D130E1A64800680290FFE70A98BD
:103990000068000700280DD4FFE70298401E02903F
:1039A0000298002805D1FFE79C490020C043086029
:1039B00000E0ECE70A98C06808380090502800D969
:1039C000F9E00098810001A040588746113B0000B3
:1039D000B73B0000B73B0000B73B0000B73B00001F
:1039E000B73B0000B73B0000B73B0000433B000083
:1039F000B73B0000B73B0000B73B0000B73B0000FF
:103A0000B73B0000B73B0000B73B0000233B000082
:103A1000B73B0000B73B0000B73B0000B73B0000DE
:103A2000B73B0000B73B0000B73B00002D3B000058
:103A3000B73B0000B73B0000B73B0000B73B0000BE
:103A4000B73B0000B73B0000B73B00003B3B00002A
:103A5000B73B0000B73B0000B73B0000B73B00009E
:103A6000B73B0000B73B0000B73B00002D3B000018
:103A7000B73B0000B73B0000B73B0000B73B00007E
:103A8000B73B0000B73B0000B73B0000B53B000070
:103A9000B73B0000B73B0000B73B0000B73B00005E
:103AA000B73B0000B73B0000B73B0000573B0000AE
:103AB000B73B0000B73B0000B73B0000B73B00003E
:103AC000B73B0000B73B0000B73B00005F3B000086
:103AD000B73B0000B73B0000B73B0000B73B00001E
:103AE000B73B0000B73B0000B73B00006D3B000058
:103AF000B73B0000B73B0000B73B0000B73B0000FE
:103B0000B73B0000B73B0000B73B0000993B00000B
:103B100009984006000E0A99886004A908200870D8
:103B200058E008A800780A99886053E004A9182092
:103B3000087005A9012008704CE004A9282008702D
:103B400048E009984000401CC0B20A99886004A966
:103B5000082008703EE004A90C2008703AE004A98F
:103B60001820087005A90120087033E00A988068C1
:103B70000799039A531C0393885403980D99491E7F
:103B8000884204D2FFE704A90C20087003E004A9CE
:103B900008200870FFE71DE00A9880680799039ADB
:103BA000531C0393885404A91820087006A9002008
:103BB00008700FE0FFE70A980068182108432421E5
:103BC00088430A99086004A90820087005A9012003
:103BD0000870FFE70A9800683C21884304A9097827
:103BE00008430A990860BCE6B54800680290FFE700
:103BF0000A980068C00600280DD5FFE70298401E0D
:103C000002900298002805D1FFE7AC490020C0438C
:103C1000086000E0ECE703980BB010BD94030020AF
:103C20000C00002010B585B0049003A8017002A913
:103C30000A7001A90B700078009003281FD8009823
:103C4000810001A0405887467D3C0000593C00009F
:103C5000653C0000713C000002A800784000049917
:103C6000886115E002A8007840000499C8610FE05F
:103C700002A8007840000499086209E0FFE702A862
:103C80000078400001A90978084304994860FFE7DB
:103C900005B010BD10B58BB00A9009A8017008A836
:103CA000027007A8037006A90120087005A900206A
:103CB000087004A908700390804908600A98006899
:103CC000282108430A990860FFE706A80178002028
:103CD0000029019006D0FFE705A80078414248413D
:103CE0000190FFE70198C007002800D1C7E0FE4817
:103CF00000680290FFE70A980068000700280DD4CA
:103D0000FFE70298401E02900298002805D1FFE7C5
:103D1000F4490020C043086000E0ECE70A98C0685E
:103D200008380090302800D990E00098810001A068
:103D300040588746F93D00004D3E00004D3E0000D2
:103D40004D3E00004D3E00004D3E00004D3E000047
:103D50004D3E00004D3E00004D3E00004D3E000037
:103D60004D3E00004D3E00004D3E00004D3E000027
:103D70004D3E00000B3E00004D3E00004D3E000059
:103D80004D3E00004D3E00004D3E00004D3E000007
:103D90004D3E0000153E00004D3E00004D3E00002F
:103DA0004D3E00004D3E00004D3E00004D3E0000E7
:103DB0004D3E0000233E00004D3E00004D3E000001
:103DC0004D3E00004D3E00004D3E00004D3E0000C7
:103DD0004D3E0000153E00004D3E00004D3E0000EF
:103DE0004D3E00004D3E00004D3E00004D3E0000A7
:103DF0004D3E00004B3E000009984006000E0A9917
:103E0000886004A9082008702FE008A800780A99A3
:103E100088602AE004A91820087005A9012008700C
:103E200023E00398002808D1FFE707A800780A9943
:103E300088600398401C039006E004A918200870CD
:103E400006A900200870FFE70FE0FFE70A98006866
:103E500018210843242188430A99086004A90820EE
:103E6000087005A901200870FFE70A9800683C2146
:103E7000884304A9097808430A99086025E79A4805
:103E800000680290FFE70A980068C00600280DD578
:103E9000FFE70298401E02900298002805D1FFE734
:103EA00090490020C043086000E0ECE705A80078D6
:103EB00006A9097808430BB010BDC0469403002042
:103EC0000C00002010B58BB00D9C0A9009A8017061
:103ED00008A80270079306A90120087005A9002010
:103EE000087004A9087003907E4908600A98006869
:103EF000282108430A990860FFE706A801780020F6
:103F00000029019006D0FFE705A80078414248410A
:103F10000190FFE70198C007002800D1C8E072486F
:103F200000680290FFE70A980068000700280DD497
:103F3000FFE70298401E02900298002805D1FFE793
:103F400068490020C043086000E0ECE70A98C068B8
:103F500008380090302800D991E00098810001A035
:103F600040588746294000007F4000007F40000005
:103F70007F4000007F4000007F4000007F40000045
:103F80007F4000007F4000007F4000007F40000035
:103F90007F4000007F4000007F4000007F40000025
:103FA0007F4000003B4000007F4000007F40000059
:103FB0007F4000007F4000007F4000007F40000005
:103FC0007F400000454000007F4000007F4000002F
:103FD0007F4000007F4000007F4000007F400000E5
:103FE0007F400000534000007F4000007F40000001
:103FF0007F4000007F4000007F4000007F400000C5
:104000007F400000454000007F4000007F400000EE
:104010007F4000007F4000007F4000007F400000A4
:104020007F4000007D40000009984006000E0A997C
:10403000886004A90820087030E008A800780A9970
:1040400088602BE004A91820087005A901200870D9
:1040500024E003980D99884208D2FFE70798039956
:104060004A1C0392405C0A99886006E004A9182063
:10407000087006A900200870FFE70FE0FFE70A9824
:10408000006818210843242188430A99086004A97C
:104090000820087005A901200870FFE70A98006849
:1040A0003C21884304A9097808430A99086024E759
:1040B0000D4800680290FFE70A980068C0060028D3
:1040C0000DD5FFE70298401E02900298002805D106
:1040D000FFE704490020C043086000E0ECE70398D4
:1040E0000BB010BD940300200C00002080B584B0FC
:1040F0000120029041031B48009000220392FFF729
:104100004BFA00980299039A8903FFF745FA009841
:104110000299039AC903FFF73FFA029A12480190E5
:104120001021FFF739FA0198029A0821FFF734FAB3
:104130000198029A0421FFF72FFA029A0B484021B6
:10414000FFF72AFA0198029A2021FFF725FA03982F
:10415000074908600749086007490860074908607F
:1041600004B080BD0040004080400040404000401E
:10417000904800408C4800408848004094480040E7
:1041800080B582B000F0E2FA62B60E4901910020DB
:104190000870C04300F036F900F0CEF900F02CF8BA
:1041A000FEF7A2FFFEF7FEFE8D49087000F04CFA04
:1041B00000F00AF8FFF718F801990120087002B022
:1041C00080BDC0466000002080B582B0084800F085
:1041D00071FBE12081020748019000F031FD0C20C5
:1041E00000F02CF90198012100F020FD02B080BD03
:1041F000120000040020074080B588B000F098FB52
:10420000FFF7F8F807A81221018002881E480690DF
:104210001E4900F047FA0698008A1D4988422DD1B0
:10422000FFE71948C089AA2804D1FFE719490120EE
:104230000870FFE7144902911120C88116490591C1
:104240000868202204921043086007A801900188A2
:104250000E480390FEF7E4FF019A02980399128832
:1042600000F0CCFF019A02980399128800F01AFA24
:10427000049A0599086890430860FFE7FFF70EF875
:1042800000F014FB08B080BD4000002000041000C6
:104290003A5A00005800002000C00040B0B58AB073
:1042A000A34A049210889178D27801F045FA024628
:1042B000049803920A46039909920891C368826898
:1042C00004694569099908980195009401F082FCF8
:1042D0000246049805920B460599134A0692D3604C
:1042E0009160C368826804694569099908980195D5
:1042F000009401F00FFD0A4606994A600860FEF737
:1043000079FE06993E480790262202700A224270E2
:10431000801C1022FEF7A6F807987E2181741321D5
:1043200000F018FB0AB0B0BD1800002080B582B0C4
:10433000FEF760FE32480190262101700421417091
:10434000801C92494022FEF78DF8019842227E217E
:104350008154432100F0FEFA02B080BD80B582B0E6
:10436000FEF748FE26480190262101700221417087
:10437000801CAC493822FEF775F801983A227E215C
:1043800081543B2100F0E6FA02B080BD80B584B0D4
:10439000FEF730FE1A492620087007204870BF48F3
:1043A000007803A90870BB480078002804D1FFE713
:1043B000BA49FE200880FFE711480290801CB749E7
:1043C00001910822FEF74EF8019A029803A9097894
:1043D00011807E2181720B2100F0BCFA04B080BDF7
:1043E0006100002080B5FEF705FE0548262101701A
:1043F000012141707E218170032100F0ABFA80BD64
:104400009001002081B001466846017001781F20AC
:104410000140012088401049086001B07047C04643
:1044200081B001466846017001781F2001400120DB
:1044300088400949086001B07047C04681B0014614
:104440006846017001781F20014001208840024920
:10445000086001B07047C04600E100E0BFF34F8F35
:10446000034904480860BFF34F8FFFE700BFFDE733
:104470000CED00E00400FA0580B582B02B484078CE
:10448000022803D1FFE7FFF769FF4DE02748407896
:1044900003281AD1FFE72548811C264801903822BD
:1044A000FDF7E0FF019802795E490A7142794A718D
:1044B00082798A71C278CA70427A4A72827A8A7222
:1044C000006B0863FFF78EFF2EE018484078042841
:1044D00003D1FFE7FFF72AFF26E0144840780728BA
:1044E00003D1FFE7FFF752FF1EE01048407808288D
:1044F0000CD1FFE76849012008700C48811C67480F
:104500000822FDF7AFFFFFF76DFF0DE00748407889
:10451000092809D1FFE70548811C05481822FDF745
:10452000A1FFFFF7BBFEFFE702B080BD64000020E3
:10453000280000204803002080B5FFF7D7FD394947
:104540007D200001086380BD80B510483E21405C9D
:1045500000280DD0FFE70D483E22002181543F2165
:10456000405C012803D1FFE700F0A4FCFFE7FFE770
:1045700006483E21405C002807D1FFE7FEF7FAFC21
:10458000002801D1FFE700E0FFE780BDBC0200206A
:1045900080B507480078032801D0FFE707E0FFF760
:1045A0006BFFFEF71DFD024900200870FFE780BD8C
:1045B0008203002080B584B019480068194902912F
:1045C00008701948006848701848006888701848D2
:1045D00000908088FEF726F9029A0346009801931E
:1045E0000B460199536211624088FEF71BF902469F
:1045F000029803920A460399C262816201790D4AC8
:10460000116041790C4A116081790C4A1160C178BE
:104610000B4A1160407A0B49086004B080BDC04667
:104620003448004000030020384800403C48004027
:1046300010000020904800408C480040884800400E
:10464000944800405848004080B51248007800283F
:104650001FD0FFE710480078002807D0FFE70F4879
:10466000FEF772FD0C490020087012E00B48FEF7BF
:10467000EBFC0B48007800280AD1FFE707480088C8
:10468000172804DBFFE7064901200870FFE7FFE772
:10469000FFE780BD61000020620000203803002099
:1046A0006300002080B586B00590049103920498C1
:1046B0000290FFE702980499039A8918884242D22F
:1046C000FFE70298FEF79EFE019001A8C0780599C9
:1046D000029A049BD21A885402980499401A401CEA
:1046E0000399884209D2FFE701A84088059A0299F8
:1046F000049BC91A89184870FFE702980499401A68
:10470000801C0399884209D2FFE70198000A059AA4
:104710000299049BC91A89188870FFE702980499C6
:10472000401AC01C0399884208D2FFE70198059AF5
:104730000299049BC91A8918C870FFE7FFE702981D
:10474000001D0290B6E706B080BD000010B58AB02B
:1047500000F0DEF80C20FEF781FA02200590FEF74B
:1047600029FA1820FEF7D6FBFEF706FA3F4908683B
:104770003F4A10403F4A8018086004200190FEF72D
:10478000C9FB072000210691FEF734FB06983A4941
:1047900008603A480090FEF717FA0098069A202120
:1047A000FEF75AFBFEF764FA7D21C900FEF76CF8AC
:1047B00001460198FEF726FA31480290FEF704FA06
:1047C0000298069A012103918907FEF745FB2D48BF
:1047D0000490FEF7F9F903990498069A8906FEF702
:1047E0003BFB4248FEF7F0F90598FEF7EDF900F0C3
:1047F000D7F8069A24490868FF2398430860086898
:10480000EE240794204308602049089108681C02A0
:10481000A0430860086833246402204308600868E5
:104820001B04984308600868DD231B0418430860D4
:1048300017490868992318430623984308601548C8
:1048400003210991FEF7A8FE079B0899099A0868B9
:1048500011242043984308600F490868120410434C
:10486000086000F01FF80AB010BDC04640020040CA
:104870000000F0FF3EC00800340200400D0040661A
:10488000913DC05F123C8C7F5800004038000040D2
:104890004000004040400040444000402C4900207F
:1048A000086070472A4900200860704728490020A6
:1048B00008607047B0B581B0009000980A4C01467E
:1048C000214001231D468D40010E084A8858284387
:1048D00088500098014621408B40010E885898432B
:1048E000885001B0B0BDC046FFFFFF000800004087
:1048F000FFE71749592008601620086088200860E3
:10490000FFE7134800680028F3D0FFE77047C04670
:10491000FFE70F49592008601620086088200860CA
:10492000FFE70B4800680028F3D0FFE77047C04658
:10493000FFE70749592008601620086088200860B2
:10494000FFE7034800680028F3D0FFE77047C04640
:104950000001004082B001900091FFE7009800281C
:1049600016D0FFE7FFE70B4800680121C9050840A2
:10497000C00D002801D0FFE7F5E7019800788949CC
:1049800008600198401C01900098401E0090E5E7E7
:1049900002B070471820074080B500F053F880BD82
:1049A00080B584B016480068072108400290FEF7E1
:1049B00087F9144908600298022806D0FFE7029898
:1049C000810011484058039003E00E4800680390AE
:1049D000FFE70E4800680F210840401C0190039833
:1049E0000199FDF751FF0146094801600068094936
:1049F00040180949FDF748FF0849086004B080BD28
:104A000010020040080000208472000020020040D4
:104A10000C00002020A1070040420F0004000020ED
:104A200080B5FFF765FF0649086807221205904325
:104A30000860086810430860FFF730FF80BDC0467B
:104A40000002004015480068002805D0FFE7134920
:104A50000868401E0860FFE711480188491C018072
:104A60000088F5218900884216DBFFE70C49002009
:104A700008800C48007800280DD0FFE70A4801881C
:104A8000491C018000883C2804DBFFE70649002020
:104A90000880FFE7FFE7FFE77047C0468403002078
:104AA00054000020600000205200002082B001A9C4
:104AB000FF2008703A480068C005002804D5FFE7C9
:104AC0000120002804D169E00120002866D1FFE719
:104AD000FFE733480068C00700285ED0FFE7EA48D8
:104AE000006801A90870304800780090032853D866
:104AF0000098810001A040588746C0460F4B000037
:104B00002D4B0000634B00000D4B000046E001A858
:104B10000078262801D0FFE740E00198244908707A
:104B20002249012008802049087037E001A8007858
:104B30000B2804DBFFE71C49002008702EE001A8C9
:104B4000007841001C48405A1A4908800198174BC8
:104B50001A88511C1980164988541349022008707C
:104B60001CE00199114803885A1C0280104AD15454
:104B700000881049098888420DD1FFE701A8007814
:104B80007E2804D0FFE708490020087006E00649A7
:104B90000320087002E0FFE79BE7FFE702B07047E1
:104BA0001C200740002007408203002080030020D3
:104BB00064000020560000204C72000081B069465D
:104BC000FF20087016480068C005002804D5FFE7DC
:104BD0000120002804D121E0012000281ED1FFE798
:104BE000FFE70F480068C007002816D0FFE7A54878
:104BF00000686946087000990A4803885A1C0280B8
:104C0000094AD15400887F218900884204DBFFE7EC
:104C1000044900200880FFE7E3E7FFE701B07047A1
:104C20001C100740880300209803002082B00190E8
:104C30000091009A019948681043486002B070479B
:104C4000B0B58CB00B900A910020099008908B4A67
:104C500002A938CA38C138CA38C101900B988849AE
:104C600088420FD1FFE790480068072109060840F5
:104C7000000E09908D4800680F2109020840000AC3
:104C800008908AE00B987F4988420DD1FFE786485B
:104C90000068072109070840000F09908348006851
:104CA00080B2000B089077E00B98774988420DD1CD
:104CB000FFE77B480068072109060840000E0990BD
:104CC000784800680F210840089064E00B986F490D
:104CD00088420DD1FFE772480068072109070840A4
:104CE000000F09906F480068C0B20009089051E0B9
:104CF0000B98674988420FD1FFE769480068072190
:104D000009040840000C0990664800680F21090258
:104D10000840000A08903CE00B985E4988420DD19B
:104D2000FFE75F480068072109050840000D09906A
:104D30005C48006880B2000B089029E00B98564947
:104D400088420FD1FFE75648006807210902084052
:104D5000000A0990534800680F2109040840000C1C
:104D6000089014E00B984D4988420FD1FFE74C485A
:104D70000068072109030840000B099049480068B2
:104D80000F2109050840000D0890FFE7FFE7FFE746
:104D9000FFE7FFE7FFE7FFE7FFE70B990020086366
:104DA0000B990320C8600B998868414A10408860BD
:104DB0000998012807D1FFE7FDF7CAFF09998A0082
:104DC00002A98850FFE70998042823D1FFE70B9830
:104DD0002B4988420FD0FFE70B982B4988420AD015
:104DE000FFE70B982A49884205D0FFE70B982A492C
:104DF000884207D1FFE7FDF741FF09998A0002A920
:104E0000885006E0FDF74AFF09998A0002A98850F8
:104E1000FFE7FFE70A9800282ED0FFE709988100F6
:104E200002A840580899491CFDF72EFD0A994A0826
:104E30008018FDF729FD801E019001A840880028F8
:104E400012D0FFE70998810002A840580899491C30
:104E5000FDF71AFD0A99CA008018FDF715FD000933
:104E6000801E0B99486206E0019803210907084358
:104E70000B994862FFE7FFE70CB0B0BD3472000049
:104E800000000740001007400020074000300740A6
:104E90000040074000500740006007400070074096
:104EA0001C0200403002004014020040200200407A
:104EB0000FFFF0FFB0B58CB0C849002008904880C3
:104EC00008800882C881C8838883C549CC200870BF
:104ED00091204870DD208870C2484B218900FDF781
:104EE000DAFA0898C04908800BA90880FFE70BA8E8
:104EF0000088022817DCFFE7FFE7BE4800680121B1
:104F0000C9050840C00D002801D0FFE7F5E70BA850
:104F10000188B348405CB8490860FFE70B98401C23
:104F20000BA90880E3E70AA900200880FFE7AE4844
:104F3000018800204029079015DCFFE70AA80088B7
:104F40000490AA48006B0521FDF79EFC04990246D7
:104F50000120002305939142069001D30598069005
:104F600006980790FFE70798C007002808D0FFE7DA
:104F70000A98401C0AA908800520FEF725F9D6E703
:104F800099480088002801D1FFE724E1964800886D
:104F9000402800DA1FE193480078CC2809D1FFE7C8
:104FA00090488078DD2804D1FFE709A90320088014
:104FB00003E009A900200880FFE709AA00921088F1
:104FC000884B0193C018417889480290017011887C
:104FD000595C417000218170C17004687F49039160
:104FE0000C801488E418E47804701488E418A47819
:104FF00044700468CC811488E418647904701488BF
:10500000E4182479447004688C831488E418E479E3
:1050100004701488E418A479447004684C801488DF
:10502000E418647A04701488E418247A44700468DC
:105030000C821488E418E47A04701488E418A47AC2
:1050400044700468CC831488E418247B8C80148812
:10505000E418647B4C821488E418A47B0C841488C4
:10506000E418647C04701488E418247C4470148868
:10507000E418E47B84700468CC801488E418247DF0
:1050800004701488E418E47C44701488E418A47C48
:10509000847004688C821488E418E47D0470148899
:1050A000E418A47D44701488E418647D8470046856
:1050B0004C841488E418A47E04701488E418647E78
:1050C00044701488E418247E847004680C81148869
:1050D000E418647F04701488E418247F44701488F2
:1050E000E418E47E84700468CC821488E4182025D7
:1050F000645D04701488E418E47F44701488E41834
:10510000A47F847004688C841488E4182325645D6B
:1051100004701488E4182225645D44701488E4182F
:105120002125645D847004684C811488E418262568
:10513000645D04701488E4182525645D4470148847
:10514000E4182425645D847004680C831488E418D2
:105150002925645D04701488E4182825645D447072
:105160001488E4182725645D84700468CC8414884E
:10517000E4182C25645D04701488E4182B25645D04
:1051800044701488E4182A25645D847004684C63B4
:105190001488E4182F25645D04701488E4182E2503
:1051A000645D44701488E4182D25645D847004687F
:1051B0008C631488E4184425645D04701288D21846
:1051C0004323D25C4270006888873E2201208854C5
:1051D0003F228854FFE70CB0B0BDC046BC0200209F
:1051E0009805002098030020880300200003002079
:1051F0005C000020181007400010074080B586B002
:1052000005900491039204980290FFE70298049994
:10521000039A8918884248D2FFE705980299049AB0
:10522000891A405C0006019002980499401A401CBB
:10523000039988420BD2FFE705990298049A801AD5
:10524000401840780104019808430190FFE7029854
:105250000499401A801C039988420BD2FFE70599F4
:105260000298049A801A4018807801020198084335
:105270000190FFE702980499401AC01C03998842E4
:105280000AD2FFE705990298049A801A4018C1785B
:10529000019808430190FFE702980199FEF7EEF8A4
:1052A000FFE70298001D0290B0E706B080BD000045
:1052B00080B586B0059104900498009005990191FD
:1052C0000B4A0C4BFDF7A4F90B4A0C4BFDF7EEF81B
:1052D000024600980B460199FDF79AF9084A094BD6
:1052E000FDF7E4F8039102900298039906B080BD9F
:1052F00000D864FC600181BE03E35F521C0A06BF54
:1053000080035D72111C913F10B5A8B027912690C3
:105310002799269800F0FEFA199118902799269857
:1053200000F00CF91791169027992698FFF7C0FF07
:10533000159114902799269800F0D4F813911290A3
:105340001999189800F0A6FD0122930700220E92E9
:10535000FDF7C6F901F024FE11911090109A119BEF
:1053600010461946FDF754F91191109017991698A7
:1053700000F090FD02460B4610461946FDF796F8E0
:1053800001F09CFD259124901399129800F082FD64
:1053900001F094FD239122901799169800F07AFD60
:1053A00002460B4610461946FDF780F801F0D6FC80
:1053B000219120901799169800F06CFD0E9A464B9B
:1053C0000F93FDF725F901F079FD1F911E901399B8
:1053D000129800F05FFD02460B4610461946FDF795
:1053E00065F801F06BFD1D911C90109806901199C5
:1053F0000791249A259BFDF70BF900900191149ACF
:105400000A92159B0B9310461946FDF74FF8229A06
:105410000292239B0393FDF7FBF8024600980B468C
:105420000199FDF7E7F80E9A0F9B04460A98049439
:105430000C460B990594FDF7EBF8069A079BFDF7D0
:10544000E7F8029A039BFDF7E3F8209A219BFDF70A
:10545000DFF8024604980B460599FDF727F80E9AE7
:105460000346069808930B46079909931B4BFDF7D3
:10547000CFF8069A079BFDF7CBF81E9A1F9BFDF706
:10548000C7F8024608980B460999FDF70FF80E9ADF
:1054900003460A980C930B460B990D93104BFDF79E
:1054A000B7F80A9A0B9BFDF7B3F81C9A1D9BFDF702
:1054B000AFF802460C980B460D99FCF7F7FF1B91CD
:1054C0001A901B991A9800F005FD0E9A0F9BFDF794
:1054D0009FF828B010BDC046000010400000E0BF9B
:1054E0000000F4BF80B586B0059104900498009048
:1054F000059901910B4A0C4BFDF78AF80B4A0C4BAE
:10550000FCF7D4FF024600980B460199FDF780F89E
:10551000084A094BFCF7CAFF0391029002980399CD
:1055200006B080BD0CDB60F2502524BF2AC6F99B73
:10553000E193E140C91F0C3C7758764080B586B0B6
:105540000591049004980090059901911E4A1F4B03
:10555000FDF75EF81E4A1F4BFCF7A8FF02460098B5
:105560000B460199FDF754F81B4A1C4BFCF79EFFB4
:1055700003910290FFE702980399FDF761F9FF217B
:105580006A31884209DBFFE7029803990022154B34
:10559000FCF78CFF03910290EDE7FFE70298039977
:1055A00000231A46FDF714F9002809D1FFE70298F5
:1055B000039900220A4BFCF779FF03910290EDE773
:1055C0000298039906B080BDC0AB8A15DADE333F7E
:1055D0002F8672A21894E14046CEC29E7687714013
:1055E00000807640008076C010B592B01191109086
:1055F0000F930E921199109800F04CFC0D910C90A5
:105600000F990E9800F046FC0B910A9048484949C2
:1056100000F040FC01F0A2FB029003910D990C9860
:1056200001F09CFB009001910B990A9801F096FB08
:10563000024600980B460199FCF7EAFF02460298E1
:105640000B460399FDF74CF8069007910D990C98BD
:1056500001F0A6FC049005910B990A9801F0A0FCBA
:10566000024604980B460599FCF7D2FF02460698BD
:105670000B460799FCF7BEFF01F002F9099108906B
:105680000898099912B010BD10B592B01191109000
:105690000F930E921199109800F0FCFB0D910C9055
:1056A0000F990E9800F0F6FB0B910A9020482149C3
:1056B00000F0F0FB01F052FB029003910D990C9861
:1056C00001F04CFB009001910B990A9801F046FB08
:1056D000024600980B460199FCF79AFF0246029891
:1056E0000B460399FCF7FCFF069007910D990C9867
:1056F00001F056FC049005910B990A9801F050FCBA
:10570000024604980B460599FCF782FF024606986C
:105710000B460799FCF76EFF01F0B2F8099108906B
:10572000089809990122D207514012B010BDC04615
:105730005A643BDF4FB5564080B592B0119010913E
:105740000F921098022807DCFFE71198401E119075
:1057500010980C301090FFE711986421FDF7B4F811
:10576000FDF74CF801F046FBFDF76AF80E900E9934
:1057700000910220401AFDF741F80246009801927C
:105780000291C117890F40188010FDF737F801F01A
:1057900031FB024601980B460299FCF787FEFDF7A4
:1057A0004FF80D9011981E494018FDF727F8002278
:1057B00009921C4BFCF72CFF01F01CFB0390049199
:1057C0001098401CFDF71AF8174A184BFCF720FFF9
:1057D00001F010FB024603980B460499FCF766FEA5
:1057E000059006910F98FDF709F8024605980B46BB
:1057F0000699FCF75BFE079008910D98FCF7FEFFF9
:10580000024607980B460899FCF750FE099A084B88
:10581000FCF74CFE0B910A900A980B9912B080BDD0
:105820006C12000000D4764061545227A0993E408B
:1058300000D297C080B584B003910290029803997A
:105840000022074BFCF7E4FE0122D207054BFCF7D0
:105850002DFE019100900098019904B080BDC046D2
:10586000A0D5E1402CB4424180B58AB0099108909E
:1058700008980090099901911B4A1C4BFCF7C8FE3F
:105880001B4A1C4BFCF712FE024600980B4601997E
:10589000FCF7BEFE184A194BFCF708FE02460098BA
:1058A0000B460199FCF7B4FE154A164BFCF7FEFDBA
:1058B000079106900698079900220392124B0293D3
:1058C000FCF70EFF039A114BFCF7F0FD029B039AC5
:1058D000FCF706FF039A0E4BFCF7E8FD05910490D8
:1058E000049805990AB080BDD61A4AED45B45D3FCB
:1058F000BEA4315A475543BFB81E85EB516847C017
:10590000A69BC420B072354000004E4000003A40D3
:105910000000374080B58AB009910890099908982D
:10592000FFF7A2FF07910690089809992D4A2E4B80
:10593000FCF76EFE2D4A2E4BFCF7B8FD0591049046
:1059400007980190069800900599049800F0A2FA33
:1059500001F004FA074A084BFCF75AFE0246009889
:105960000B460199FCF7A2FD03910290029803995E
:105970000AB080BDF168E388B5F8643F80B58AB0AD
:10598000099108900999089800F008F90791069084
:1059900008980999134A144BFCF73AFE134A144B22
:1059A000FCF784FD0591049006980799114A124B63
:1059B000FCF77CFD009001910599049800F06AFACB
:1059C00001F07CFA0D4A0E4BFCF722FE02460098CD
:1059D0000B460199FCF76AFD039102900298039926
:1059E0000AB080BD068195438B389EC0C3F5285C04
:1059F0008F425F401FBAA0BE654E77BFF94ECC7A8A
:105A0000319473BF80B58CB00B910A900B990A98B2
:105A1000FFF780FF099108900B990A98FFF7AEFFF6
:105A2000079106900999089800F034FA01F046FAB7
:105A3000009001910799069800F02CFA01F03EFAC7
:105A4000024600980B460199FCF7E2FD059104908F
:105A50000599049801F048F800F03CFA039102908F
:105A6000029803990CB080BD80B59AB01991189036
:105A700019991898FFF736FD1791169017991698EF
:105A800000F008FA159114901599149801F016FA7F
:105A900013911290149A159B10461946FCF706FDB7
:105AA00001F00CFA11911090149A0092159B019339
:105AB00010461946FCF7FAFC009A019BFCF7F6FC2D
:105AC00001F0FCF90F910E90129802901398039038
:105AD0001898049019990591244A254BFCF798FDD4
:105AE000244A254BFCF7E2FC024604980B46059934
:105AF000FCF78EFD214A224BFCF7D8FC02460298A7
:105B00000B460399FCF784FD0246049808920A4666
:105B100005990992109A0692119A0792194A1A4BFE
:105B2000FCF776FD194A1A4BFCF7C0FC02460698B2
:105B30000B460799FCF76CFD024608980B4609993D
:105B4000FCF7B4FC0A900B910E980F99114A124B76
:105B5000FCF75EFD02460A980B460B99FCF7A6FC83
:105B60000D910C900C980D991AB080BDB75F3E59FD
:105B7000315CEDBEAEF36F97FDBA73BFF6B2EDB414
:105B800035A2FE3FE31A9FC9FE791ABF958098841B
:105B90000B79943F2C616D8C9DF0323F80B588B0BD
:105BA0000791069007990698FFF7C8FC05910490A5
:105BB00007990698FFF758FF0391029004980599FA
:105BC000029A039BFCF772FC0191009000980199E6
:105BD00008B080BD70B5A0B00D4604462599249844
:105BE0001F951E941D931C921B911A901F991E982D
:105BF00000F036F91991189019991898FFF784FB5D
:105C00001791169019991898FFF7FCFE15911490AA
:105C1000159B149A1D991C98FFF7E6FC139112909E
:105C20001B9802901A9801901399129800F052F95B
:105C3000024601980B460299FCF7DCFC119110908A
:105C40001098119900220892824B0793FCF7E0FC10
:105C5000089A0F910E900E980F997F4B0993FCF7BD
:105C600025FC169A179BFCF7C5FC0D910C90199911
:105C70001898FFF7DFFD089A039004910C980D998E
:105C8000764BFCF72DFD024603980B460499FCF772
:105C90000DFC00F0E5F80B910A900B990A98FFF7BC
:105CA00033FB179116900B990A98FFF7ABFE1591ED
:105CB0001490159B149A1D991C98FFF795FC13914D
:105CC00012901B9806901A9805901399129800F05C
:105CD00001F9024605980B460699FCF78BFC079BD9
:105CE000089A1191109010981199FCF791FC089A5C
:105CF000099B0F910E900E980F99FCF7D7FB169AFF
:105D0000179BFCF777FC0D910C900C980D9920B027
:105D100070BDC04670B5A0B00D46044625992498C4
:105D20001F951E941D931C921B911A901F991E98EB
:105D300000F096F81991189019991898FFF7E4FA5D
:105D40001791169019991898FFF75CFE1591149009
:105D5000159B149A1D991C98FFF796FC13911290AD
:105D60001B9802901A9801901399129800F0B2F8BB
:105D7000024601980B460299FCF73CFC11911090E9
:105D80001098119900220892324B0793FCF740FCBF
:105D9000089A0F910E900E980F992F4B0993FCF7CC
:105DA00085FB169A179BFCF725FC0D910C90199911
:105DB0001898FFF73FFD089A039004910C980D99ED
:105DC000264BFCF78DFC024603980B460499FCF722
:105DD0006DFB00F045F80B910A900B990A98FFF7BC
:105DE00093FA179116900B990A98FFF70BFE1591ED
:105DF0001490159B149A1D991C98FFF745FC13915C
:105E000012901B9806901A9805901399129800F01A
:105E100061F8024605980B460699FCF7EBFB079BD9
:105E2000089A1191109010981199FCF7F1FB089ABB
:105E3000099B0F910E900E980F99FCF737FB169A5D
:105E4000179BFCF7D7FB0D910C900C980D9920B087
:105E500070BDC04600001040008086400080964023
:105E600080B584B003910290029803990122D20771
:105E7000064BFCF71BFB0022054BFCF731FC0191A4
:105E800000900098019904B080BDC0462CB442C176
:105E9000A0D5E14080B582B00191009000980199B1
:105EA000154A164BFCF7B4FB0022124BFCF718FC0A
:105EB00002B080BD80B582B000200190FEF760F98D
:105EC000FFE7FEF7C1FBFEF775FBFEF73DFBFEF7B4
:105ED0005FFBF6E780B582B00191009000980199D0
:105EE0000022044BFCF794FB034A044BFCF7F8FB3D
:105EF00002B080BD00806640182D4454FB2109404B
:105F00002021020C01D010211046020A01D01046B7
:105F10000839020901D01046091F820801D0104635
:105F2000891E420801D0881E7047081A7047F0B4D5
:105F3000040C8BB2264682B25E430D0C1046370C21
:105F40005843360480190021794116466E43370CB8
:105F500036048019794126466E438919F0BC704792
:105F60004900CA020243100000D004204A0D01D0AB
:105F700001221043044A490D914201D102210843F4
:105F8000012800D105207047FF070000F7B596B043
:105F900014460021A160D160179909914D00CD49A7
:105FA0006D088D4205DC179961602060002019B0F2
:105FB000F0BDC949C94E8D4238DAD32709997F050A
:105FC0000029C74A1799334617DDFCF713FBB54282
:105FD00006D0C44AC44BFCF70DFB6160206009E0A9
:105FE0003A46C14BFCF706FBC04AC14BFCF702FB2B
:105FF00061602060012019B0F0BDFCF757FAB5428E
:1060000006D0B84AB84BFCF751FA6160206009E04D
:106010003A46B54BFCF74AFAB44AB54BFCF746FA98
:10602000616020600020C04319B0F0BDB1498D42CD
:10603000179977DC490049080746AF4AAF4B0491EE
:10604000FCF7E6FA0022AE4BFCF730FAFCF7F8FB5F
:106050000A90FCF7D3FBA24A334603910290FCF767
:10606000D7FA3A46049BFCF7CBFA06460F469D4A00
:106070009D4B03990298FCF7CBFA2A0D01250C924F
:1060800032463B46FCF7BCFA61602060032D39D0F4
:106090004800410D0C98401A690169181139814274
:1060A00030DA98492801794408960D900818049729
:1060B0004368026803990298FCF7AAFA02460B4665
:1060C0000791069004990898FCF794FA06460F4643
:1060D000049B089AFCF794FA079B069AFCF78AFA45
:1060E00005918949049079440D984018C3688268E5
:1060F00003990298FCF78CFA059B049AFCF77AFA4C
:106100006D1CBDE70998002809DA01226068D207F2
:10611000504060600A9819B04042F0BD02E00A9811
:1061200019B0F0BD09030122090B12050E90891860
:106130001798109140007549400D40184111C00654
:10614000C00E0D9113902021081A14900020069083
:1061500005250790139800280D980CD0401982004F
:106160006B487844875813998F40101841681498E9
:10617000C1400F4304E04019810066487844475805
:1061800010993846FFF7D3FE06460A9138460E9915
:10619000FFF7CDFE8A190A9B8A4201D2012100E055
:1061A0000021C9188C46AF00694679188B684E6883
:1061B000C318834201D2012000E00020961936184E
:1061C000002802D0964202D903E0964201D2012073
:1061D00000E00020624612184E6068468B60C25193
:1061E00028466D1E0028B5DC012102984907401899
:1061F000800F1390029805998000039E049D0B91D7
:10620000FCF7FCFA074630460891FCF70BFB1D2211
:10621000D243FCF714FC10900F912846FCF702FBC8
:106220003D22D243FCF70BFC0E900D910B98FCF72E
:10623000F9FA5D22D243FCF702FC0B910C900D9B06
:106240000E9AFCF733F90F9B109AFCF72FF93A4698
:10625000089BFCF72BF900250E463A462846089B7A
:10626000FCF7C8F90F9B109AFCF7C4F90D9B0E9A26
:10627000FCF7C0F90B9B0C9AFCF7C2F9264A274B96
:10628000FCF7C6F907460D91254A264B31462846AC
:10629000FCF7BEF93A460D9BFCF708F90F461522AC
:1062A0000C9092061D4B31462846FCF7B1F93B464F
:1062B0000C9AFCF7FBF8179A002A05DA139A524257
:1062C00013920122D207514061602060139819B0E7
:1062D000F0BD0000FB21E93F7CD90240FB21F93FE2
:1062E000000040543163621A61B4D03D7370032ED4
:1062F0008A19A33BFB21394183C8C96D305FE43F54
:106300000000E03F26100000E60F00000BFCFFFF3E
:106310009A0F0000800F0000182D4454FB21F93D16
:106320003326A611460B113CF0B51FB44E00F920E0
:106330007608800584B00F46864204DA0498FCF79C
:106340007FFA002838D0049A3B4610461946FCF7DD
:106350005FF9044602462C480D460B460621784458
:1063600000F05CF822462B46FCF752F901910090B0
:106370003946079B069A0498FCF74AF907460291AA
:1063800020462946019B009AFCF742F93A46029BB7
:10639000FCF730F9074600220091D24320462946F7
:1063A000FCF74DFB194A96420ADA3A46009BFCF785
:1063B00021F90022164B23E00020154909B0F0BD59
:1063C000144A964202DD0024134D03E001225205D7
:1063D000B51A002422462B46FCF70CF9064601911B
:1063E00022462B4600200A49FCF704F90D460446D4
:1063F0003A463046009B0199FCF7FCF822462B46B2
:10640000FCF7FEF809B0F0BD3E0D00003333D33F7A
:106410000000F03F0000E93F0000D23FF8B504461D
:106420004F1EC8000838211815461E4608684968DE
:106430003A4606239A4310D02A463346FCF7E8F83A
:106440003A46D200083AA3181A687F1E5B68FCF728
:106450002DF806223B469343EED1022F23D0042F82
:1064600011D0062F2FD12A463346FCF7D1F8E36A24
:10647000A26AFCF71BF82A463346FCF7C9F8636AA0
:10648000226AFCF713F82A463346FCF7C1F8E369A1
:10649000A269FCF70BF82A463346FCF7B9F86369A2
:1064A0002269FCF703F82A463346FCF7B1F8E368A3
:1064B000A268FBF7FBFF2A463346FCF7A9F863689E
:1064C0002268FBF7F3FFF8BDF0B51FB4054648009E
:1064D0000C46F9214008890586B088420BDA284627
:1064E0002146FFF73DFD042801D100F0A9F9284617
:1064F00021460BB0F0BD2A46234610461946FCF74C
:1065000087F806460F462A462346FCF781F8009096
:106510002548019132463B4605217844FFF77EFF2E
:10652000029010980391002829D0204A204B01990D
:106530000098FCF76DF80490059168460FC8FCF7C9
:1065400067F8002201910090D24309990898FCF75E
:1065500076FA019B009AFCF74DF832463B46FCF771
:1065600057F8099B089AFCF745F8059B049AFCF735
:1065700041F82A462346FCF743F80BB0F0BD0B4622
:1065800030463946029AFCF743F8084A084BFBF7B5
:106590008DFF019B009AFCF73BF82A462346FBF748
:1065A00085FF0BB0F0BD0000820C00004955555529
:1065B0005555C5BFF0B505468BB048000F4607914D
:1065C00040088C4914461E460990884205DA284640
:1065D0003946FCF735F900287ED08749099888426A
:1065E0001BDB0798002802DA080747404640834A29
:1065F000834B28463946FCF703F805460F462246EA
:10660000334680488049FBF7F5FF2A463B46FBF7B7
:106610004DFF002405460F4626462A463B461046B7
:106620001946FBF7F5FF02460B4601910090FBF778
:10663000EFFF0246089075480B4606910621784404
:10664000FFF7ECFE02900391714806217844069B07
:10665000089AFFF7E3FE019B009AFBF7D9FF05912B
:10666000049028463946019B009AFBF7D1FF089019
:10667000069102A80FC8FBF719FF069B089AFBF7C3
:10668000C7FF22463346FBF711FF019B009AFBF739
:10669000BFFF22463346FBF709FF04460E465D4A1C
:1066A0005D4B06990898FBF7B3FF22463346FBF78C
:1066B000FDFE2A463B4603910290FBF7F7FE044697
:1066C0000E464D4909988842109857DBFCF796F81A
:1066D00022463346059100E02DE00490FBF7E6FEEC
:1066E000224633460191009010461946FBF790FF71
:1066F000019B009AFBF7F4FF039B029AFBF77AFFDA
:106700002A463B46FBF77CFF0122FCF798F9059BE4
:10671000049AFBF775FF044607980D46801702217F
:1067200008400121081AFCF769F822462B46FBF7BE
:106730006FFF0BB0F0BD10990998491C084328431E
:106740000AD0109801280DD02A463B460020334934
:10675000FBF7C6FF0BB0F0BD7B005B082A460020AC
:106760002F49F5E728463946FFF7FAFB042801D1FF
:1067700000F066F8284639460BB0F0BD012835D048
:10678000002002460090334628463946FBF738FF82
:10679000039B029AFBF734FF05910490224633468F
:1067A00000201E49FBF79CFF074600240D46334698
:1067B0002046009AFBF72CFF0022194BFBF776FED0
:1067C0000646069120462946059B049AFBF720FFC2
:1067D0003246069BFBF76AFE3A462B46FBF718FF4C
:1067E00022462B46FBF762FE0BB0F0BD2046314639
:1067F0000BB0F0BD0000303E2894E53F182D445406
:10680000FB21E93F075C143326A6813C860B000080
:10681000A80B0000635555555555D53F0000F0BFF6
:106820000000F03F10B50122FCF709F910BD00226D
:1068300010B5134610461146FBF752FF10BD00007D
:10684000034A10B500201107FCF7F9F810BD00004D
:1068500001FDFFFF02E008C8121F08C1002AFAD19B
:1068600070477047002001E001C1121F002AFBD1D0
:1068700070470000014908607047000000000020D8
:10688000F0B505460C4648008849400885B0884266
:1068900021DB4942411829430CD08549884203DC59
:1068A000884211D1002D0FD028462146FFF7BAFFAC
:1068B00005B0F0BD002C03DD0020014605B0F0BDA1
:1068C0007C487D4905B0F0BD0120FFF7D3FFFFF7FD
:1068D000AEFF05B0F0BD794988423FDA7849884279
:1068E00003DC7448774905B0F0BD2A4623461046BC
:1068F0001946FBF78DFE0646024673480F460B46C7
:1069000006217844FFF78AFD32463B46FBF780FEBE
:1069100000906E48019132463B4604217844FFF7CF
:106920007DFD32463B46FBF773FE00225F4BFBF7D3
:10693000BDFD02460B4601990098FBF7D1FE2A46A1
:106940002346FBF765FE624A624BFBF759FE2A4677
:106950002346FBF755FE574A5A4B4AE00027FF43B0
:10696000002C4ADA514E0022334628462146FBF7D6
:106970009DFD3A46FCF763F80446024656480D462C
:106980000B4606217844FFF749FD22462B46FBF7CC
:106990003FFE00905148019122462B460421784445
:1069A000FFF73CFD22462B46FBF732FE0022334622
:1069B000FBF77CFD06460F462046294600F0CCFA40
:1069C00004460D4632463B4601990098FBF788FE87
:1069D00022462B46FBF71CFE3D4A3E4BFBF70AFEC8
:1069E00022462B46FBF762FD0122FCF728F8314ACC
:1069F000314BFBF705FE05B0F0BD00222B4B2846BE
:106A00002146FBF7FDFD3A46FCF719F805460E4610
:106A100000F0A2FA00270C463A460B460490FBF71A
:106A200045FD3A4623460191009010461946FBF772
:106A3000EFFD33462A46FBF7E3FD019B009AFBF787
:106A40004FFE00902648019133462A46062178449D
:106A5000FFF7E4FC33462A46FBF7DAFD02902148B3
:106A6000039133462A4604217844FFF7D7FC334686
:106A70002A46FBF7CDFD00220C4BFBF717FD024623
:106A80000B4603990298FBF72BFE2346049AFBF76B
:106A9000BFFD019B009AFBF709FD3A462346FBF731
:106AA00005FD0122FBF7CBFF05B0F0BD0000F03F74
:106AB0000000F07F182D4454FB2109400000E03F06
:106AC0000000603CFB21F93FFA06000010070000BF
:106AD000075C143326A6913C780600008E06000061
:106AE000AE050000C4050000F0B504464F008E4816
:106AF0008FB07F080D460D91874228DB4042381841
:106B000020430CD08948874203DC874218D1002CEF
:106B100016D020462946FFF785FE0FB0F0BD844A07
:106B2000844B20462946FBF773FD07460E46824AF2
:106B3000824B20462946FBF76BFD3A46334649E037
:106B40000120FFF797FEFFF772FE0FB0F0BD7C4803
:106B5000874243DAF920800587420BDA204629462E
:106B6000FFF7FEF9042801D1FFF76AFE2046294607
:106B70000FB0F0BD22462B4610462946FBF748FDD4
:106B8000064602466F480F460B4606217844FFF73B
:106B900045FC32463B46FBF73BFD06906A480791B1
:106BA00032463B4604217844FFF738FC32463B46E8
:106BB000FBF72EFD00225C4BFBF778FC02460B46F0
:106BC00007990698FBF78CFD22462B46FBF720FD24
:106BD00022462B46FBF76AFC0FB0F0BD2046524C14
:106BE0006900490800222346FBF70AFD0022D24330
:106BF000FBF725FF0546024654480E460B46062184
:106C00007844FFF70BFC2A463346FBF701FD06905C
:106C10004F4807912A46334604217844FFF7FEFB8C
:106C20002A463346FBF7F4FC00222346FBF73EFCE2
:106C3000059104902846314600F08EF908904548A9
:106C40000C46874219DB059B049A07990698FBF7C7
:106C500047FD02460B4621460898FBF7D9FC234620
:106C6000089AFBF723FC0122FBF7E9FE304A314B7F
:106C7000FBF7C0FC304A314B4AE000273A460B464E
:106C80000898FBF713FC3A4623460A910E901046EB
:106C90001946FBF7BDFC2A463346FBF7B1FC0A9BBD
:106CA0000E9AFBF71DFD05460E46059B049A0799B3
:106CB0000698FBF715FD0091049001222846314605
:106CC000FBF7BDFE1A4A1B4BFBF79AFC0E46054626
:106CD000012221460898FBF7B2FE009B049AFBF7BD
:106CE00097FC2A463346FBF785FC05460E460122F3
:106CF00038462146FBF7A3FE0F4C174F22463B4672
:106D0000FBF77EFC2A463346FBF77AFC22463B46DD
:106D1000FBF776FC0D9A002A00DD5DE70122D20721
:106D200051400FB0F0BD00000000F03F0000F07FC8
:106D3000075C143326A6913C182D4454FB21F93FDF
:106D40000000E03FC0040000D60400004C04000036
:106D5000620400003333EF3FFB21E93F00B54A00F6
:106D6000224B520887B09A4202DC0022134625E0EB
:106D70001F4B9A4208D1002808D10120FFF77AFD65
:106D8000FFF755FD07B000BD9A4203DBFFF74AFD50
:106D900007B000BD02AAFFF7F9F88107890F0BD0F1
:106DA000012001290ED0022916D0009002A80FC898
:106DB000FFF78AFB07B000BD02A80FC8FFF7B4FABF
:106DC00007B000BD009002A80FC8FFF77DFB0122AD
:106DD000D207514007B000BD02A80FC8FFF7A4FAC0
:106DE0000122D207514007B000BD0000FB21E93F5E
:106DF0000000F07FF8B54A002B4B520DD6182B4AF5
:106E00000C460546142E2BDA002E12DA284BFBF71F
:106E10004DFB00221346FBF729FE40D2002C02DB7B
:106E2000002425463BE060004008284337D0214C31
:106E300014E0214F0B46F7403B402B4331D01C4B15
:106E4000FBF734FB00221346FBF710FE27D2002C81
:106E500003DA01200005F0400419BC4300251EE0C0
:106E6000332E1EDC33460027143BFF43DF403842FD
:106E700017D00F4BFBF7C4FB00221346FBF7F6FDC0
:106E80000DD2002C0ADA142E0CD03420811B0120E4
:106E900088404019A84200D2641C0546BD432146E3
:106EA0002846F8BD641CF9E701FCFFFF9C750088CB
:106EB0003CE4377E0000F0BFFFFF0F0000B54A0042
:106EC000234B520887B09A4203DC002213460092FB
:106ED00029E0204B9A4208D1002808D10120FFF771
:106EE000C9FCFFF7A4FC07B000BD9A4203DBFFF723
:106EF00099FC07B000BD02AAFFF748F88107890F87
:106F0000012000290CD0012911D0022915D002A896
:106F10000FC8FFF709FA0122D207514007B000BDA0
:106F2000009002A80FC8FFF7CFFA07B000BD02A873
:106F30000FC8FFF7F9F907B000BD009002A80FC80D
:106F4000FFF7C2FA0122D207514007B000BD00008E
:106F5000FB21E93F0000F07FF8B506460C46FBF741
:106F6000ABFD051E0F4600D00120014349000B4830
:106F70004908411AC90F0DD0002E01D0012100E0AF
:106F800000210C4361004908401AC00F02D10120C2
:106F9000FFF770FC28463946F8BD00000000F07F7E
:106FA00010B54A00144B5208012486B09A4203DC03
:106FB0000022134600941AE0104B9A4208D1002890
:106FC00008D10120FFF756FCFFF731FC06B010BDD9
:106FD0009A4203DBFFF726FC06B010BD02AAFEF7BB
:106FE000D5FFC007800F201A009002A80FC8FFF736
:106FF000E1FA06B010BD0000FB21E93F0000F07F80
:10700000555555555555C53F7D6FEB0312D6D4BF29
:107010005544880E55C1C93F3B8F68B52882A4BF2F
:1070200088B20175E0EF493F09F7FD0DE13D023FF0
:107030004B2D8A1C273A03C0C88A599CE52A004078
:1070400059018D1B6C06E6BF82922EB1C5B8B33FC5
:10705000555555555555C53F7D6FEB0312D6D4BFD9
:107060005544880E55C1C93F3B8F68B52882A4BFDF
:1070700088B20175E0EF493F09F7FD0DE13D023FA0
:107080004B2D8A1C273A03C0C88A599CE52A004028
:1070900059018D1B6C06E6BF82922EB1C5B8B33F75
:1070A0004C5555555555A53F7751C1166CC156BF26
:1070B0009015CB19A001FA3EAD529C804F7E92BE36
:1070C000C4B1B4BD9EEE213ED43888BEE9FAA8BD55
:1070D00000004054FB21F93F3163621A61B4D03D96
:1070E0000000601A61B4D03D7370032E8A19A33B6F
:1070F0000000002E8A19A33BC14920259A837B39C1
:1071000000000000000000006E83F9A22915444E23
:10711000D15727FCC0DD34F5999562DB4190433CA3
:10712000AB6351FE61C5BBDE3A6E24B7E0D24D427F
:10713000EA2E49061C92D1091CEB1DFE3EA729B17F
:10714000F53582E88444BB2E26709CE9417E5FB40D
:1071500039D69139F43953838B5F849C3B28F9BD30
:10716000FF97F81F0F9805DE8B112FEF1F6D0A5A3E
:10717000CF7E366DB709CB27663F464F2DEA5F9E1F
:10718000C7BA27757BF1E5EBF739073DEA92528ADA
:10719000B15FFB6B085D8D1F463003560000000099
:1071A000A6F810111111813FD561C119A0012ABFA4
:1071B0007DFEB157E31DC73EEB9C2B8AE6E55ABE28
:1071C0007CD5CF5A3AD9E53D7AFE10111111C13F55
:1071D00037D60684F464963F280356C9226D6D3F66
:1071E0000165F2F2D844433FA69237A0887E143F4F
:1071F000735360DBCB75F3BEFE41B31BBAA1AB3F4B
:1072000093846EE9E326823F1583E0FEC8DB573F97
:1072100068108D1AF726303FE9A7F0320FB8123FF9
:10722000D47ABF74702AFB3E000000000400000006
:10723000080000000048E801000000000080000095
:10724000006CDC0200000000009600000300030058
:1072500003003B0003003001300103000B001B0062
:1072600013000000000000000400000008000000FF
:107270000C00000000000000000000000000000002
:10728000100000000048E8010080000000D8B805A8
:1072900000960000006CDC0200000000000000000E
:1072A000006CDC02C872000000000020100000002A
:1072B00054680000D872000010000020A00D0000EB
:1072C0006468000000000000000000006000000092
:0872D00000D8B80500D8B8058C
:0400000500002409CA
:00000001FF
